:020000040000FA
:060000005AEF34F012007B
:08000800F2A402D05CEF2DF020
:100010009EA002D0C5EF2DF0A1A202D0BEEF30F01D
:100020009EAA02D052EF28F01200D08EF28E12005B
:06003A000B00906A0000BB
:10004000BC0300000F000000856A0000CB03000025
:100050000B000000846A0000FF01000001000000A6
:10006000436A0000B601000041000000416A000040
:10007000FB010000020000001A6A00007303000088
:1000800027000000106A0000E00300000A000000E2
:10009000D1690000000500003F0000001B6900005E
:1000A00000010000B60000000A6900000004000022
:1000B00011000000026900001104000008000000A7
:1000C000D9CFE6FFE1CFD9FFE652FE0EDBCFE6FF48
:1000D000010EF36EFD0EDB5004E0D890F336E80617
:1000E000FCE1F350E552E71402E0010E01D0000EEE
:1000F000DF6EDF5000D0E552E552E7CFD9FF1200A6
:10010000D9CFE6FFE1CFD9FF010EF36EFC0EDB5035
:1001100004E0D890F336E806FCE1F350146EFD0ECF
:10012000DBCFE9FFFE0EDBCFEAFF1450EF12E55202
:10013000E7CFD9FF1200D9CFE6FFE1CFD9FF010EFB
:10014000F36EFC0EDB5004E0D890F336E806FCE1D9
:10015000F350E81C146EFD0EDBCFE9FFFE0EDBCF83
:10016000EAFF1450EF16E552E7CFD9FF1200D9CFBE
:10017000E6FFE1CFD9FF030EE126DF6A010EDF5C67
:1001800001E31ED1DF28E66EDF50B50DF3CFE9FFA6
:10019000F4CFEAFF000EE926010EEA22E552E7500D
:1001A000EF6EDF50B50DF3CFE9FFF4CFEAFF000E9D
:1001B000E926010EEA22EE52EF6ADF50B50DF3CFC9
:1001C000E9FFF4CFEAFF000EE926010EEA22030E52
:1001D000E926000EEA22EE6AED6ADF50B50DF3CF94
:1001E000E9FFF4CFEAFF000EE926010EEA22050E30
:1001F000E926000EEA22EF6ADF50B50DF3CFE9FFE2
:10020000F4CFEAFF000EE926010EEA22060EE926E7
:10021000000EEA22EF6ADF50B50DF3CFE9FFF4CF0D
:10022000EAFF000EE926010EEA22090EE926000E79
:10023000EA22EF6ADF50B50DF3CFE9FFF4CFEAFF12
:10024000000EE926010EEA220A0EE926000EEA2235
:10025000EF6ADF50B50DF3CFE9FFF4CFEAFF000EF0
:10026000E926010EEA22070EE926000EEA22EF6ACD
:10027000DF50B50DF3CFE9FFF4CFEAFF000EE9261A
:10028000010EEA220B0EE926000EEA22EF6ADF5089
:10029000B50DF3CFE9FFF4CFEAFF000EE926010E1A
:1002A000EA220C0EE926000EEA22EF6ADF50B50DB5
:1002B000F3CFE9FFF4CFEAFF000EE926010EEA22B0
:1002C000080EE926000EEA22EF6ADF50B50DF3CFE3
:1002D000E9FFF4CFEAFF000EE926010EEA22020E42
:1002E000E926000EEA22EF6ADE52380EDD6E010EBC
:1002F000DBCFE6FFE66AE66ADF50B50DF3CFE9FF34
:10030000F4CFEAFF000EE926010EEA227D0EE9266F
:10031000000EEA22E9CF14F0EACF15F014C0E6FF90
:1003200015C0E6FFB5EC31F0166E050EE15E165015
:10033000010EDBCFE6FFE66AE66ADF50B50DF3CFCC
:10034000E9FFF4CFEAFF000EE926010EEA220D0EC6
:10035000E926000EEA22E9CF14F0EACF15F014C026
:10036000E6FF15C0E6FFB5EC31F0166E050EE15E56
:100370001650010EDBCFE6FFE66AE66ADF50B50DE8
:10038000F3CFE9FFF4CFEAFF000EE926010EEA22DF
:100390000D0EE926000EEA22E9CF14F0EACF15F09F
:1003A000380E1426000E152214C0E6FF15C0E6FF15
:1003B000B5EC31F0166E050EE15E1650DF2ADED682
:1003C000030EE15C02E2E16AE552E16EE552E7CF3D
:1003D000D9FF1200D9CFE6FFE1CFD9FF070EE12602
:1003E000010EF36EFE0EDBCFF4FFF350F45C1EE261
:1003F000FC0EDBCFE9FFFD0EDBCFEAFFEF50146E02
:10040000156AD890155004E6800E145C000E15583D
:100410000DE2FC0EDBCFE9FFFD0EDBCFEAFF020EA3
:10042000E926000EEA22EE50ED1002E1000EEFD3B5
:10043000FE0EDB50B50DF3CFE9FFF4CFEAFF000E5F
:10044000E926010EEA22EE52E9CF14F0EACF15F0C8
:10045000050E14C0DBFF060E15C0DBFFFC0EDBCF64
:10046000E9FFFD0EDBCFEAFFEECF14F0EECF15F083
:10047000EECF16F0EECF17F0EECF18F0EFCF19F069
:10048000050EDBCFE9FF060EDBCFEAFF14C0EEFF5F
:1004900015C0EEFF16C0EEFF17C0EEFF18C0EEFF4E
:1004A00019C0EEFFFE0EDB50B50DF3CFE9FFF4CF20
:1004B000EAFF000EE926010EEA22060EE926000EEA
:1004C000EA22EF50E66EFE0EDB50B50DF3CFE9FFEA
:1004D000F4CFEAFF000EE926010EEA22070EE92614
:1004E000000EEA22E552E750EF6E380EDF6EDFCFE6
:1004F000E6FFE66AE66AFE0EDB50B50DF3CFE9FFD4
:10050000F4CFEAFF000EE926010EEA227D0EE9266D
:10051000000EEA22E9CF14F0EACF15F014C0E6FF8E
:1005200015C0E6FFB5EC31F0166E050EE15E165013
:10053000DFCFE6FFE66AE66AFE0EDB50B50DF3CFCD
:10054000E9FFF4CFEAFF000EE926010EEA220D0EC4
:10055000E926000EEA22E9CF14F0EACF15F014C024
:10056000E6FF15C0E6FFB5EC31F0166E050EE15E54
:100570001650DFCFE6FFE66AE66AFE0EDB50B50DE9
:10058000F3CFE9FFF4CFEAFF000EE926010EEA22DD
:100590000D0EE926000EEA22E9CF14F0EACF15F09D
:1005A000380E1426000E152214C0E6FF15C0E6FF13
:1005B000B5EC31F0166E050EE15E1650FE0EDB5006
:1005C000B50DF3CFE9FFF4CFEAFF000EE926010EE7
:1005D000EA22060EE926000EEA22EF5001E083D15E
:1005E000FE0EDB50B50DF3CFE9FFF4CFEAFF000EAE
:1005F000E926010EEA22080EE926000EEA22EF6A39
:10060000DF6AFE0EDB50B50DF3CFE9FFF4CFEAFF52
:10061000000EE926010EEA22020EE926000EEA2269
:10062000EF50DF5C01E35ED1FE0EDB50B50DF3CF82
:10063000E9FFF4CFEAFF000EE926010EEA22080ED8
:10064000E926000EEA22EF50EF2A146E156AFE0E1C
:10065000DB50B50DF3CFE9FFF4CFEAFF000EE9263A
:10066000010EEA22030EE926000EEA221450EE24BF
:10067000E76E1550EE20EA6EE7CFE9FFEF50E00F8E
:10068000E76E040EE7CFDBFFDBCF14F014340EE28D
:10069000040EDBCF15F0630EE76E1518E8AE02D03E
:1006A000153403D0E750D880155402E2040EDB6AFB
:1006B000FE0EDB50B50DF3CFE9FFF4CFEAFF000EDD
:1006C000E926010EEA22080EE926000EEA22EFCF03
:1006D00014F0FE0EDB50B50DF3CFE9FFF4CFEAFFC7
:1006E000000EE926010EEA22050EE926000EEA2296
:1006F000EF50145C10E3FE0EDB50B50DF3CFE9FFB5
:10070000F4CFEAFF000EE926010EEA22080EE926E0
:10071000000EEA22EF6A010EDB6A070EF36E010E8D
:10072000DBCFF4FFF350F45C01E3DAD0040EDBCF4F
:1007300018F0196A18BE1968030ED89018361936C1
:10074000E806FBE1620E18264B0E1922010EDB5063
:100750000F011824F66E000E1920F76E0800F550F0
:10076000E66EFE0EDB50B50DF3CFE9FFF4CFEAFFE6
:10077000000EE926010EEA227D0EE926000EEA228D
:10078000E9CF16F0EACF17F0010EDB50080D165036
:10079000F324146E1750F420156EDF500F0114244B
:1007A000E96E000E1520EA6EE552E750EF6EFE0E80
:1007B000DB50B50DF3CFE9FFF4CFEAFF000EE926D9
:1007C000010EEA227D0EE926000EEA22E9CF1AF098
:1007D000EACF1BF0010EDB50080D1A50F324186EFF
:1007E0001B50F420196EDF501824E96E000E1920FA
:1007F000EA6EEF50E66EFE0EDB50B50DF3CFE9FF6B
:10080000F4CFEAFF000EE926010EEA220D0EE926DA
:10081000000EEA22E9CF16F0EACF17F0010EDB5006
:10082000080D1650F324146E1750F420156EDF5087
:100830001424E96E000E1520EA6EE552E750EF6EC3
:10084000FE0EDB50B50DF3CFE9FFF4CFEAFF000E4B
:10085000E926010EEA227D0EE926000EEA22E9CF02
:100860001AF0EACF1BF0010EDB50080D1A50F324EA
:10087000186E1B50F420196EDF501824E96E000E1C
:100880001920EA6EEF50E66EFE0EDB50B50DF3CF89
:10089000E9FFF4CFEAFF000EE926010EEA220D0E71
:1008A000E926000EEA22E9CF16F0EACF17F0380E5B
:1008B0001626000E1722010EDB50080D1650F324E9
:1008C000146E1750F420156EDF501424E96E000EDC
:1008D0001520EA6EE552E750EF6E010EDB2A1DD7B8
:1008E000DF2A8FD682D1FE0EDB50B50DF3CFE9FFA4
:1008F000F4CFEAFF000EE926010EEA22080EE926EF
:10090000000EEA22EF6ADF6AFE0EDB50B50DF3CF70
:10091000E9FFF4CFEAFF000EE926010EEA22020EFB
:10092000E926000EEA22EF50DF5C01E35ED1FE0E05
:10093000DB50B50DF3CFE9FFF4CFEAFF000EE92657
:10094000010EEA22080EE926000EEA22EF50EF2AF5
:10095000146E156AFE0EDB50B50DF3CFE9FFF4CF30
:10096000EAFF000EE926010EEA22030EE926000E38
:10097000EA221450EE24E76E1550EE20EA6EE7CF1F
:10098000E9FFEF50E00FE76E040EE7CFDBFFDBCFB0
:1009900014F014340EE2040EDBCF15F0630EE76E94
:1009A0001518E8AE02D0153403D0E750D88015549E
:1009B00002E2040EDB6AFE0EDB50B50DF3CFE9FF59
:1009C000F4CFEAFF000EE926010EEA22080EE9261E
:1009D000000EEA22EFCF14F0FE0EDB50B50DF3CF80
:1009E000E9FFF4CFEAFF000EE926010EEA22050E28
:1009F000E926000EEA22EF50145C10E3FE0EDB50F5
:100A0000B50DF3CFE9FFF4CFEAFF000EE926010EA2
:100A1000EA22080EE926000EEA22EF6A010EDB6ADE
:100A2000070EF36E010EDBCFF4FFF350F45C01E32D
:100A3000DAD0040EDBCF18F0196A18BE1968030E5D
:100A4000D89018361936E806FBE1620E18264B0ED0
:100A50001922010EDB500F011824F66E000E19202A
:100A6000F76E0800F550E66EFE0EDB50B50DF3CFC5
:100A7000E9FFF4CFEAFF000EE926010EEA227D0E1F
:100A8000E926000EEA22E9CF16F0EACF17F0010EB0
:100A9000DB50080D1650F324146E1750F420156E19
:100AA000DF500F011424E96E000E1520EA6EE552A6
:100AB000E750EF6EFE0EDB50B50DF3CFE9FFF4CF3C
:100AC000EAFF000EE926010EEA227D0EE926000E5D
:100AD000EA22E9CF1AF0EACF1BF0010EDB50080D35
:100AE0001A50F324186E1B50F420196EDF5018248E
:100AF000E96E000E1920EA6EEF50E66EFE0EDB5036
:100B0000B50DF3CFE9FFF4CFEAFF000EE926010EA1
:100B1000EA220D0EE926000EEA22E9CF16F0EACF0E
:100B200017F0010EDB50080D1650F324146E175009
:100B3000F420156EDF501424E96E000E1520EA6EC5
:100B4000E552E750EF6EFE0EDB50B50DF3CFE9FF37
:100B5000F4CFEAFF000EE926010EEA227D0EE92617
:100B6000000EEA22E9CF1AF0EACF1BF0010EDB50AB
:100B7000080D1A50F324186E1B50F420196EDF5024
:100B80001824E96E000E1920EA6EEF50E66EFE0E94
:100B9000DB50B50DF3CFE9FFF4CFEAFF000EE926F5
:100BA000010EEA220D0EE926000EEA22E9CF16F028
:100BB000EACF17F0380E1626000E1722010EDB5072
:100BC000080D1650F324146E1750F420156EDF50E4
:100BD0001424E96E000E1520EA6EE552E750EF6E20
:100BE000010EDB2A1DD7DF2A8FD6FE0EDB50B50D96
:100BF000F3CFE9FFF4CFEAFF000EE926010EEA2267
:100C0000080EE926000EEA22EF6A010E00D0146EEB
:100C1000070EE15C02E2E16AE552E16E1450E55232
:100C2000E7CFD9FF1200D9CFE6FFE1CFD9FFFE0E03
:100C3000DB50B50DF3CFE9FFF4CFEAFF000EE92654
:100C4000010EEA22060EE926000EEA22FD0EDBCF97
:100C5000EFFFFE0EDB50B50DF3CFE9FFF4CFEAFF57
:100C6000000EE926010EEA22070EE926000EEA220E
:100C7000FD0EDBCFEFFFE552E7CFD9FF1200D9CF52
:100C8000E6FFE1CFD9FF020EE126FD0EDB50146E28
:100C9000156AFE0EDB50B50DF3CFE9FFF4CFEAFF86
:100CA000000EE926010EEA22030EE926000EEA22D2
:100CB0001450EE24E76E1550EE20EA6EE7CFE9FF00
:100CC000EF50E00FE76E010EE7CFDBFFDF6A070EA4
:100CD000DF5C01E3B1D0010EDB50080DF3CF18F05B
:100CE000F4CF19F0620E18264B0E1922DF500F01B7
:100CF0001824F66E000E1920F76E0800F550E66E07
:100D0000FE0EDB50B50DF3CFE9FFF4CFEAFF000E86
:100D1000E926010EEA227D0EE926000EEA22E9CF3D
:100D200016F0EACF17F0DF50080D1650F324146EBA
:100D30001750F420156EFD0EDB500F011424E96EE0
:100D4000000E1520EA6EE552E750EF6EDF50080DF9
:100D5000F3CF18F0F4CF19F07D0E1826010E1922EA
:100D6000FD0EDB501824E96E000E1920EA6EEF50DC
:100D7000E66EFE0EDB50B50DF3CFE9FFF4CFEAFFD0
:100D8000000EE926010EEA220D0EE926000EEA22E7
:100D9000E9CF16F0EACF17F0DF50080D1650F32414
:100DA000146E1750F420156EFD0EDB501424E96EFE
:100DB000000E1520EA6EE552E750EF6EDF50080D89
:100DC000F3CF18F0F4CF19F07D0E1826010E19227A
:100DD000FD0EDB501824E96E000E1920EA6EEF506C
:100DE000E66EFE0EDB50B50DF3CFE9FFF4CFEAFF60
:100DF000000EE926010EEA220D0EE926000EEA2277
:100E0000E9CF16F0EACF17F0380E1626000E17229B
:100E1000DF50080D1650F324146E1750F420156E91
:100E2000FD0EDB501424E96E000E1520EA6EE5522B
:100E3000E750EF6EDF2A4BD7020EE15C02E2E16A77
:100E4000E552E16EE552E7CFD9FF1200D9CFE6FFB8
:100E5000E1CFD9FFE652FE0EDB50B50DF3CFE9FF2F
:100E6000F4CFEAFF000EE926010EEA22EE52EF6A05
:100E7000FE0EDB50B50DF3CFE9FFF4CFEAFF000E15
:100E8000E926010EEA22030EE926000EEA22EE6AA6
:100E9000ED6AFE0EDB50B50DF3CFE9FFF4CFEAFFAC
:100EA000000EE926010EEA22050EE926000EEA22CE
:100EB000EF6AFE0EDB50B50DF3CFE9FFF4CFEAFF8A
:100EC000000EE926010EEA22060EE926000EEA22AD
:100ED000EF6AFE0EDB50B50DF3CFE9FFF4CFEAFF6A
:100EE000000EE926010EEA22090EE926000EEA228A
:100EF000EF6AFE0EDB50B50DF3CFE9FFF4CFEAFF4A
:100F0000000EE926010EEA220A0EE926000EEA2268
:100F1000EF6AFE0EDB50B50DF3CFE9FFF4CFEAFF29
:100F2000000EE926010EEA22070EE926000EEA224B
:100F3000EF6AFE0EDB50B50DF3CFE9FFF4CFEAFF09
:100F4000000EE926010EEA220B0EE926000EEA2227
:100F5000EF6AFE0EDB50B50DF3CFE9FFF4CFEAFFE9
:100F6000000EE926010EEA220C0EE926000EEA2206
:100F7000EF6AFE0EDB50B50DF3CFE9FFF4CFEAFFC9
:100F8000000EE926010EEA22080EE926000EEA22EA
:100F9000EF6AFE0EDB50B50DF3CFE9FFF4CFEAFFA9
:100FA000000EE926010EEA22020EE926000EEA22D0
:100FB000EF6A380EDF6EDFCFE6FFE66AE66AFE0E06
:100FC000DB50B50DF3CFE9FFF4CFEAFF000EE926C1
:100FD000010EEA227D0EE926000EEA22E9CF14F086
:100FE000EACF15F014C0E6FF15C0E6FFB5EC31F00E
:100FF000166E050EE15E1650DFCFE6FFE66AE66A82
:10100000FE0EDB50B50DF3CFE9FFF4CFEAFF000E83
:10101000E926010EEA220D0EE926000EEA22E9CFAA
:1010200014F0EACF15F014C0E6FF15C0E6FFB5ECEA
:1010300031F0166E050EE15E1650DFCFE6FFE66A70
:10104000E66AFE0EDB50B50DF3CFE9FFF4CFEAFF01
:10105000000EE926010EEA220D0EE926000EEA2214
:10106000E9CF14F0EACF15F0380E1426000E152241
:1010700014C0E6FF15C0E6FFB5EC31F0166E050EA4
:10108000E15E1650E552E552E7CFD9FF1200D9CF05
:10109000E6FFE1CFD9FF050EE126DF6A010EDF5C36
:1010A00001E3BBD3DF50B50DF3CFE9FFF4CFEAFF87
:1010B000000EE926010EEA22060EE926000EEA22BB
:1010C000EF5021E0DF50B50DF3CFE9FFF4CFEAFF99
:1010D000000EE926010EEA22070EE926000EEA229A
:1010E000EF06DF50B50DF3CFE9FFF4CFEAFF000EB6
:1010F000E926010EEA22070EE926000EEA22EF5049
:10110000000801E288D3DF50B50DF3CFE9FFF4CF3B
:10111000EAFF000EE926010EEA22060EE926000E7D
:10112000EA22EF50E66EDF50B50DF3CFE9FFF4CFC2
:10113000EAFF000EE926010EEA22070EE926000E5C
:10114000EA22E552E750EF6E9D90DF50B50DF3CFE8
:10115000E9FFF4CFEAFF000EE926010EEA22090EAC
:10116000E926000EEA22EF5025E1DF50B50DF3CF5E
:10117000E9FFF4CFEAFF000EE926010EEA220C0E89
:10118000E926000EEA22EF5002E1010E01D0000E26
:10119000E66EDF50B50DF3CFE9FFF4CFEAFF000EA6
:1011A000E926010EEA220B0EE926000EEA22E5529C
:1011B000E750EF6EDF50B50DF3CFE9FFF4CFEAFF54
:1011C000000EE926010EEA22090EE926000EEA22A7
:1011D000EF0402E19D801FD39D80DF50B50DF3CF5A
:1011E000E9FFF4CFEAFF000EE926010EEA22060E1F
:1011F000E926000EEA22EF5001E1FBD2010EDB6A84
:10120000070EF36E010EDBCFF4FFF350F45C01E345
:1012100080D2010EF36E020EF3CFDBFFDF50B50D6F
:10122000F3CFE9FFF4CFEAFF000EE926010EEA2230
:10123000020EE926000EEA22EF50F36E020EDBCF1B
:10124000F4FFF350F45C01E311D1DF50B50DF3CF9F
:10125000E9FFF4CFEAFF000EE926010EEA227D0E37
:10126000E926000EEA22E9CF16F0EACF17F0010EC8
:10127000DB50080D1650F324146E1750F420156E31
:10128000020EDB040F011424E96E000E1520EA6E35
:10129000EF9EEF46070EE66EDF50B50DF3CFE9FF88
:1012A000F4CFEAFF000EE926010EEA227D0EE926C0
:1012B000000EEA22E9CF16F0EACF17F0010EDB505C
:1012C000080D1650F324146E1750F420156E020EFC
:1012D000DB501424E96E000E1520EA6EEF50E66E26
:1012E00060EC00F0E552E55201082FE1030EE66ED6
:1012F000DF50B50DF3CFE9FFF4CFEAFF000EE9268A
:10130000010EEA227D0EE926000EEA22E9CF18F04E
:10131000EACF19F0010EDB50080D1850F324166EB9
:101320001950F420176E020EDB0400011624146E0F
:10133000000E1720156E14C0E6FF15C0E6FF80EC06
:1013400000F0E552E552E5522ED0030EE66EDF5076
:10135000B50DF3CFE9FFF4CFEAFF000EE926010E49
:10136000EA227D0EE926000EEA22E9CF18F0EACF44
:1013700019F0010EDB50080D1850F324166E1950A9
:10138000F420176E020EDB0400011624146E000E0A
:101390001720156E14C0E6FF15C0E6FF9BEC00F0A9
:1013A000E552E552E552DF50B50DF3CFE9FFF4CF3A
:1013B000EAFF000EE926010EEA227D0EE926000E64
:1013C000EA22E9CF1CF0EACF1DF0010EDB50080D38
:1013D0001C50F3241A6E1D50F4201B6E020EDB0409
:1013E0000F011A24E96E000E1B20EA6EEF50E66E24
:1013F000DF50B50DF3CFE9FFF4CFEAFF000EE92689
:10140000010EEA220D0EE926000EEA22E9CF18F0BD
:10141000EACF19F0DF50B50DF3CFE9FFF4CFEAFFC3
:10142000000EE926010EEA220B0EE926000EEA2242
:10143000EF50380D1850F324166E1950F420176E23
:10144000010EDB50080D1650F324146E1750F420D3
:10145000156E020EDB041424E96E000E1520EA6EF0
:10146000E552E750EF6E020EDB2AD8D6DF50B50DFD
:10147000F3CFE9FFF4CFEAFF000EE926010EEA22DE
:101480007D0EE926000EEA22E9CF16F0EACF17F02A
:10149000010EDB50080D1650F324146E1750F42083
:1014A000156E020EDB040F011424E96E000E1520E8
:1014B000EA6EEF9EEF46DF50B50DF3CFE9FFF4CFB4
:1014C000EAFF000EE926010EEA22080EE926000EC8
:1014D000EA22EF50146E156ADF50B50DF3CFE9FF25
:1014E000F4CFEAFF000EE926010EEA22030EE926F8
:1014F000000EEA221450EE24E76E1550EE20EA6E3C
:10150000E7CFE9FFEF50E00FE76E030EE7CFDBFF19
:10151000000EF36E030EDBCFF4FFF350F45C04E334
:10152000030EDB50630802E2030EDB6A030EDB509E
:10153000080DF3CF14F0F4CF15F0620E14264B0E05
:101540001522010EDB500F011424F66E000E15203B
:10155000F76E0800040EF5CFDBFF070E146EDF50A8
:10156000B50DF3CFE9FFF4CFEAFF000EE926010E37
:10157000EA220A0EE926000EEA22EF50145CE66E1B
:10158000040EDBCFE6FF60EC00F0E552E552010807
:101590002FE1030EE66EDF50B50DF3CFE9FFF4CF78
:1015A000EAFF000EE926010EEA227D0EE926000E72
:1015B000EA22E9CF18F0EACF19F0010EDB50080D4E
:1015C0001850F324166E1950F420176E020EDB0427
:1015D00000011624146E000E1720156E14C0E6FFCD
:1015E00015C0E6FF80EC00F0E552E552E5522ED042
:1015F000030EE66EDF50B50DF3CFE9FFF4CFEAFF3F
:10160000000EE926010EEA227D0EE926000EEA22EE
:10161000E9CF18F0EACF19F0010EDB50080D185091
:10162000F324166E1950F420176E020EDB0400012D
:101630001624146E000E1720156E14C0E6FF15C098
:10164000E6FF9BEC00F0E552E552E552DF50B50DA8
:10165000F3CFE9FFF4CFEAFF000EE926010EEA22FC
:101660007D0EE926000EEA22E9CF1CF0EACF1DF03C
:10167000010EDB50080D1C50F3241A6E1D50F4208F
:101680001B6E020EDB040F011A24E96E000E1B20F4
:10169000EA6EEF50E66EDF50B50DF3CFE9FFF4CF01
:1016A000EAFF000EE926010EEA220D0EE926000EE1
:1016B000EA22E9CF18F0EACF19F0DF50B50DF3CFE9
:1016C000E9FFF4CFEAFF000EE926010EEA220B0E35
:1016D000E926000EEA22EF50380D1850F324166E5A
:1016E0001950F420176E010EDB50080D1650F3242C
:1016F000146E1750F420156E020EDB041424E96EEC
:10170000000E1520EA6EE552E750EF6E010EDB2A5F
:1017100077D5DF50B50DF3CFE9FFF4CFEAFF000E28
:10172000E926010EEA220A0EE926000EEA22EF2A35
:10173000DF50B50DF3CFE9FFF4CFEAFF000EE92645
:10174000010EEA220A0EE926000EEA22EFCF14F07B
:10175000050E145C4EE3DF50B50DF3CFE9FFF4CF77
:10176000EAFF000EE926010EEA22080EE926000E25
:10177000EA22EF2ADF50B50DF3CFE9FFF4CFEAFFFD
:10178000000EE926010EEA22080EE926000EEA22E2
:10179000EFCF14F0DF50B50DF3CFE9FFF4CFEAFF40
:1017A000000EE926010EEA22050EE926000EEA22C5
:1017B000EF50145C0FE3DF50B50DF3CFE9FFF4CF2A
:1017C000EAFF000EE926010EEA22080EE926000EC5
:1017D000EA22EF6ADF50B50DF3CFE9FFF4CFEAFF5D
:1017E000000EE926010EEA220A0EE926000EEA2280
:1017F000EF6A9D90DF50B50DF3CFE9FFF4CFEAFF1C
:10180000000EE926010EEA22090EE926000EEA2260
:10181000010EEF6E9D80DF2A41D4050EE15C02E2ED
:10182000E16AE552E16EE552E7CFD9FF1200D9CF68
:10183000E6FFE1CFD9FF040EE12689940A0EE66E99
:1018400075EC34F0E552020EDB6A010EF36E020E07
:10185000DBCFF4FFF350F45C01E390D0030EDB6ABE
:10186000020EDB50B50DF3CFE9FFF4CFEAFF000E17
:10187000E926010EEA22020EE926000EEA22EF50C6
:10188000F36E030EDBCFF4FFF350F45C74E2020E50
:10189000DB50B50DF3CFE9FFF4CFEAFF000EE926E8
:1018A000010EEA220D0EE926000EEA22E9CF18F019
:1018B000EACF19F0020EDB50B50DF3CFE9FFF4CFFC
:1018C000EAFF000EE926010EEA220C0EE926000EC0
:1018D000EA22EF50380D1850F324166E1950F420F8
:1018E000176E0101B551080D1650F324146E1750F0
:1018F000F420156E030EDB500F011424E96E000E68
:101900001520EA6EEFCFDFFF030EDBCFE6FF020EFE
:10191000DB50B50DF3CFE9FFF4CFEAFF000EE92667
:10192000010EEA22EE52EF50E552E724E76E010E77
:10193000E7CFDBFF400EF36E010EDBCFF4FFF35079
:10194000F45C0AE3800E146E010EDBCFE7FF145047
:10195000E726010EE7CFDBFF010EDB50816EDF1CB7
:10196000836E84900A0EE66E75EC34F0E552848046
:10197000030EDB2A75D7020EDB2A67D70101B551AA
:10198000060A26E0030A20E0010A1AE0070A14E02A
:10199000010A0EE0030A08E0010A02E0B56B1CD060
:1019A00082908292829418D082808292829414D003
:1019B00082908282829410D08280828282940CD023
:1019C00082908292828408D082808292828404D023
:1019D00082908282828400D08984B52B070EB55D07
:1019E00056E3B56B020EDB6A010EF36E020EDBCF1F
:1019F000F4FFF350F45C4BE2020EDB50B50DF3CF75
:101A0000E9FFF4CFEAFF000EE926010EEA22090EF3
:101A1000E926000EEA22EF0437E1020EDB50B50D95
:101A2000F3CFE9FFF4CFEAFF000EE926010EEA2228
:101A30000C0EE926000EEA22EF5002E1010E01D061
:101A4000000EE66E020EDB50B50DF3CFE9FFF4CFCA
:101A5000EAFF000EE926010EEA220C0EE926000E2E
:101A6000EA22E552E750EF6E020EDB50B50DF3CFE0
:101A7000E9FFF4CFEAFF000EE926010EEA22090E83
:101A8000E926000EEA22EF6A020EDB2AADD7040E29
:101A9000E15C02E2E16AE552E16EE552E7CFD9FF8F
:101AA0001200D9CFE6FFE1CFD9FF400EF36EFE0E54
:101AB000DBCFF4FFF350F45C0AE3800E146EFE0EED
:101AC000DBCFE7FF1450E726FE0EE7CFDBFF848075
:101AD000FE0EDB50816EFD0EDB50836E8490640E33
:101AE000E66E75EC34F0E5528480E552E7CFD9FF1D
:021AF0001200E2
:0E1AF200D9CFE6FFE1CFD9FFFE0EDB04E96E8F
:101B0000EA6AD890E936EA36730EE926030EEA222D
:101B1000EECF14F0EFCF15F014C0F3FF15C0F4FFB3
:101B200000D0E552E7CFD9FF1200D9CFE6FFE1CFD1
:101B3000D9FF45EC2CF0D00EE66E89EC2CF0E55286
:101B4000E66A89EC2CF0E55245EC2CF0D10EE66EFD
:101B500089EC2CF0E552010EE66ED0EC2CF0E5524B
:101B6000E66EFD0EDBCFE9FFFE0EDBCFEAFFE552AE
:101B7000E750EF6E010EE66ED0EC2CF0E552E66E0B
:101B8000010EE76EFD0EDBCFE9FFFE0EDBCFEAFFB5
:101B9000E750E926000EEA22E552E750EF6E010E0B
:101BA000E66ED0EC2CF0E552E66E020EE76EFD0E0E
:101BB000DBCFE9FFFE0EDBCFEAFFE750E926000EA0
:101BC000EA22E552E750EF6E010EE66ED0EC2CF003
:101BD000E552E66E030EE76EFD0EDBCFE9FFFE0E6B
:101BE000DBCFEAFFE750E926000EEA22E552E75094
:101BF000EF6E010EE66ED0EC2CF0E552E66E040EB0
:101C0000E76EFD0EDBCFE9FFFE0EDBCFEAFFE7500C
:101C1000E926000EEA22E552E750EF6E010EE66E6D
:101C2000D0EC2CF0E552E66E050EE76EFD0EDBCF34
:101C3000E9FFFE0EDBCFEAFFE750E926000EEA22BD
:101C4000E552E750EF6EE66AD0EC2CF0E552E66E16
:101C5000060EE76EFD0EDBCFE9FFFE0EDBCFEAFFDF
:101C6000E750E926000EEA22E552E750EF6E5BEC02
:101C70002CF0E552E7CFD9FF1200D9CFE6FFE1CF34
:101C8000D9FF45EC2CF0D00EE66E89EC2CF0E55235
:101C9000E66A89EC2CF0E552FD0EDBCFE9FFFE0E83
:101CA000DBCFEAFFEF50E66E89EC2CF0E552010E37
:101CB000E76EFD0EDBCFE9FFFE0EDBCFEAFFE7505C
:101CC000E926000EEA22EF50E66E89EC2CF0E55290
:101CD000020EE76EFD0EDBCFE9FFFE0EDBCFEAFF63
:101CE000E750E926000EEA22EF50E66E89EC2CF070
:101CF000E552030EE76EFD0EDBCFE9FFFE0EDBCFF4
:101D0000EAFFE750E926000EEA22EF50E66E89EC82
:101D10002CF0E552040EE76EFD0EDBCFE9FFFE0E60
:101D2000DBCFEAFFE750E926000EEA22EF50E66E2D
:101D300089EC2CF0E552050EE76EFD0EDBCFE9FFD6
:101D4000FE0EDBCFEAFFE750E926000EEA22EF5055
:101D5000E66E89EC2CF0E552060EE76EFD0EDBCF49
:101D6000E9FFFE0EDBCFEAFFE750E926000EEA228C
:101D7000EF50E66E89EC2CF0E5525BEC2CF0E5526E
:101D8000E7CFD9FF1200D9CFE6FFE1CFD9FFFD0E93
:101D9000DB041DE1FE0EDB504009E76EFE0EE7CFCF
:101DA000DBFFFC0EDB0408E1FE0EDB502009E76ED2
:101DB000FE0EE7CFDBFF0AD0FC0EDB5007E1FE0E84
:101DC000DB50DF0BE76EFE0EE7CFDBFF0AD0FD0E28
:101DD000DB5007E1FE0EDB50BF0BE76EFE0EE7CFD8
:101DE000DBFFFE0EDB5000D0E552E7CFD9FF12003B
:101DF000D9CFE6FFE1CFD9FFFD0EDBCFE9FFFE0E25
:101E0000DBCFEAFFEE52EF50E66EFB0EDBCFE9FFD1
:101E1000FC0EDBCFEAFFEE52E552E750EF6EFD0E0F
:101E2000DBCFE9FFFE0EDBCFEAFFEF50E66EFB0EE5
:101E3000DBCFE9FFFC0EDBCFEAFFE552E750EF6EA8
:101E4000FD0EDBCFE9FFFE0EDBCFEAFF020EE92637
:101E5000000EEA22EFCF14F00C0E145C42E3FD0EEC
:101E6000DBCFE9FFFE0EDBCFEAFF020EE926000E14
:101E7000EA22EF50F40FE66EFB0EDBCFE9FFFC0E1B
:101E8000DBCFEAFF020EE926000EEA22E552E75018
:101E9000EF6EFB0EDBCFE9FFFC0EDBCFEAFF070E98
:101EA000E926000EEA22010EEF6E0C0E146EFD0EF6
:101EB000DBCFE9FFFE0EDBCFEAFF020EE926000EC4
:101EC000EA22EF50145C0CE1FB0EDBCFE9FFFC0EC5
:101ED000DBCFEAFF020EE926000EEA220C0EEF6EBF
:101EE0004BD0FD0EDBCFE9FFFE0EDBCFEAFF020E8B
:101EF000E926000EEA22EFCF14F00C0E145C3CE24F
:101F0000FD0EDBCFE9FFFE0EDBCFEAFF020EE92676
:101F1000000EEA22EF50E66EFB0EDBCFE9FFFC0E6F
:101F2000DBCFEAFF020EE926000EEA22E552E75077
:101F3000EF6EFB0EDBCFE9FFFC0EDBCFEAFF070EF7
:101F4000E926000EEA22EF6AFD0EDBCFE9FFFE0E66
:101F5000DBCFEAFF020EE926000EEA22EF500CE189
:101F6000FB0EDBCFE9FFFC0EDBCFEAFF020EE9261A
:101F7000000EEA220C0EEF6EE552E7CFD9FF1200F9
:101F8000D9CFE6FFE1CFD9FFFD0EDBCFE9FFFE0E93
:101F9000DBCFEAFFEE52EF50E66EFB0EDBCFE9FF40
:101FA000FC0EDBCFEAFFEE52E552E750EF6EFD0E7E
:101FB000DBCFE9FFFE0EDBCFEAFFEF50E66EFB0E54
:101FC000DBCFE9FFFC0EDBCFEAFFE552E750EF6E17
:101FD000FD0EDBCFE9FFFE0EDBCFEAFF070EE926A1
:101FE000000EEA22EF0436E1FD0EDBCFE9FFFE0E24
:101FF000DBCFEAFF020EE926000EEA22EF500C0FBB
:10200000E66EFB0EDBCFE9FFFC0EDBCFEAFF020E34
:10201000E926000EEA22E552E750EF6E0C0E146E30
:10202000FD0EDBCFE9FFFE0EDBCFEAFF020EE92655
:10203000000EEA22EF50145C0CE1FB0EDBCFE9FF4F
:10204000FC0EDBCFEAFF020EE926000EEA220C0EA0
:10205000EF6E3FD0FD0EDBCFE9FFFE0EDBCFEAFFD8
:10206000070EE926000EEA22EF5033E1FD0EDBCF2A
:10207000E9FFFE0EDBCFEAFF020EE926000EEA22A0
:10208000EF50E66EFB0EDBCFE9FFFC0EDBCFEAFF85
:10209000020EE926000EEA22E552E750EF6E0C0E22
:1020A000146EFD0EDBCFE9FFFE0EDBCFEAFF020E62
:1020B000E926000EEA22EF50145C0BE1FB0EDBCFA9
:1020C000E9FFFC0EDBCFEAFF020EE926000EEA2252
:1020D000EF6AE552E7CFD9FF1200D9CFE6FFE1CF93
:1020E000D9FFE652DF6AFD0EDB040DE1FE0EDB5088
:1020F0000C0FDF6E0C0E146EFE0EDB50145C02E152
:102100000C0EDF6E16D0FD0EDB500BE1FE0EDB5029
:10211000DF6E0C0E146EFE0EDB50145C01E1DF6A04
:1021200008D0AA0E146EFD0EDB50145C02E1AA0E5C
:10213000DF6EDF5000D0E552E552E7CFD9FF120045
:10214000D9CFE6FFE1CFD9FF45EC2CF0D00EE66EFB
:1021500089EC2CF0E552E66A89EC2CF0E552050E8C
:10216000E76EFD0EDBCFE9FFFE0EDBCFEAFFE750A7
:10217000E926000EEA22EF500F0B146E040EE76EF4
:10218000FD0EDBCFE9FFFE0EDBCFEAFFE750E926CD
:10219000000EEA22EF500F0B100DF3501410E66EF4
:1021A00089EC2CF0E552030EE76EFD0EDBCFE9FF64
:1021B000FE0EDBCFEAFFE750E926000EEA22EF50E1
:1021C0000F0B146E020EE76EFD0EDBCFE9FFFE0E65
:1021D000DBCFEAFFE750E926000EEA22EF500F0BB3
:1021E000100DF3501410E66E89EC2CF0E552010E40
:1021F000E76EFD0EDBCFE9FFFE0EDBCFEAFFE75017
:10220000E926000EEA22EF500F0B146EFD0EDBCF15
:10221000E9FFFE0EDBCFEAFFEF500F0B100DF3507E
:102220001410E66E89EC2CF0E5525BEC2CF0E552D4
:10223000E7CFD9FF1200D9CFE6FFE1CFD9FF45ECB8
:102240002CF0D00EE66E89EC2CF0E552040EE66E12
:1022500089EC2CF0E552010EE76EFD0EDBCFE9FFB5
:10226000FE0EDBCFEAFFE750E926000EEA22EF5030
:102270000F0B146EFD0EDBCFE9FFFE0EDBCFEAFF86
:10228000EF500F0B100DF3501410E66E89EC2CF08C
:10229000E552030EE76EFD0EDBCFE9FFFE0EDBCF4E
:1022A000EAFFE750E926000EEA22EF500F0B146E0A
:1022B000020EE76EFD0EDBCFE9FFFE0EDBCFEAFF7D
:1022C000E750E926000EEA22EF500F0B100DF350F5
:1022D0001410E66E89EC2CF0E552050EE76EFD0E4B
:1022E000DBCFE9FFFE0EDBCFEAFFE750E926000E69
:1022F000EA22EF500F0B146E040EE76EFD0EDBCFDB
:10230000E9FFFE0EDBCFEAFFE750E926000EEA22E6
:10231000EF500F0B100DF3501410E66E89EC2CF0FB
:10232000E5525BEC2CF0E552E7CFD9FF1200D9CF94
:10233000E6FFE1CFD9FF45EC2CF0D00EE66E89EC3C
:102340002CF0E552030EE66E89EC2CF0E552FE0E01
:10235000DBCFE6FF89EC2CF0E5525BEC2CF0E5528C
:10236000E7CFD9FF1200D9CFE6FFE1CFD9FFE65280
:10237000E66AD00EE66E21EC2DF0E552E552DF6EF6
:102380007F0EDF14DF6EDFCFE6FFE66AD00EE66E6B
:1023900043EC2DF0E552E552E552900EE66E070E45
:1023A000E66ED00EE66E43EC2DF0E552E552E552B6
:1023B000E552E552E7CFD9FF1200080EE66E040E93
:1023C000E66E95EC0DF0E552E552030199510401DA
:1023D000085D04E008C499F3010E076F12000401C0
:1023E0000B5100D0120004010D5100D01200040165
:1023F0000C5100D0120004010A5100D01200040157
:10240000095100D012000401085100D0120004014B
:102410000951166E176A0A513C0DF3501624146EBA
:10242000F4501720156E14C0F3FF15C0F4FF00D050
:10243000120004010B51E96EEA6AD890E936EA36D7
:10244000730EE926030EEA22EECF14F0EFCF15F05B
:1024500014C0F3FF15C0F4FF00D0120004010D51A9
:10246000E96EEA6AD890E936EA36810EE926030E6B
:10247000EA22EECF14F0EFCF15F014C0F3FF15C031
:06248000F4FF00D0120081
:0A248600D9CFE6FFE1CFD9FF040E25
:10249000E126020EDB6AFB0EDBCFE9FFFC0EDBCF91
:1024A000EAFF050EEE1801E1ED5051E1010EE76E75
:1024B000FD0EDBCFE9FFFE0EDBCFEAFFE750E9269A
:1024C000000EEA22EF50000EF350DE6EDD6A020EBF
:1024D000E76EFD0EDBCFE9FFFE0EDBCFEAFFE75034
:1024E000E926000EEA22EF50DF12DF2A010E01E397
:1024F000DB2AE66EE66EE66ADECFE6FFDDCFE6FFBC
:10250000030EE76EFD0EDBCF14F0FE0EDBCF15F0F1
:10251000E7501426000E152214C0E6FF15C0E6FF92
:10252000FCEC17F0166E070EE15E1650E76E030E18
:10253000E7CFDBFFDB500AE0030EDBCFE6FF92ECD8
:1025400025F0E552E76E020EE7CFDBFF05D0030E64
:10255000F36E020EF3CFDBFF020EDB50146E040E9F
:10256000E15C03E200D0E16AE552E16E1450E5520D
:10257000E7CFD9FF1200D9CFE6FFE1CFD9FF070E91
:10258000E126050EDB6AFB0EDBCFE9FFFC0EDBCF9D
:10259000EAFFEECF14F0EFCF15F0060E145C000E3C
:1025A000155801E2D7D0010EE76EFD0EDBCFE9FF33
:1025B000FE0EDBCFEAFFE750E926000EEA22EF50DD
:1025C000DE6EDD6AD9CFE9FFDACFEAFFEE50ED6EBD
:1025D000EF6A020EE76EFD0EDBCFE9FFFE0EDBCFEA
:1025E000EAFFE750E926000EEA22EF50DF12DF2A69
:1025F000010E01E3DB2A030EE76EFD0EDBCFE9FFE0
:10260000FE0EDBCFEAFFE750E926000EEA22EF508C
:10261000E66ED950020FE96EDACFEAFFE552E750D5
:10262000EE6EED6AD950020FE96EDACFEAFFEE5096
:10263000ED6EEF6A040EE76EFD0EDBCFE9FFFE0ED6
:10264000DBCFEAFFE750E926000EEA22EF50146ED6
:10265000156AD950020FE96EDACFEAFF1450EE1274
:102660001550ED12050EE76EFD0EDBCFE9FFFE0EF5
:10267000DBCFEAFFE750E926000EEA22040EEFCF97
:10268000DBFF020EDBCF14F0030EDBCF15F0010EE3
:10269000145C000E155858E3D950020FE96EDACFDA
:1026A000EAFF780ED880EE54000EED544DE3020E92
:1026B000086E096ADBCF0DF0030EDBCF0EF068EC7D
:1026C00033F00650F36E040EDB50F35C3DE1010E77
:1026D000E66E020EDBCFE6FF030EDBCFE6FFDECFBA
:1026E000E6FFDDCFE6FF060EE76EFD0EDBCF14F052
:1026F000FE0EDBCF15F0E7501426000E152214C095
:10270000E6FF15C0E6FFFCEC17F0166E070EE15E63
:102710001650E76E060EE7CFDBFFDB500BE0060E30
:10272000DBCFE6FF92EC25F0E552E76E050EE7CF32
:10273000DBFF09D0FB0EDBCFE9FFFC0EDBCFEAFFAE
:10274000050EEE6EED6A05D0030EF36E050EF3CFA7
:10275000DBFF05D0030EF36E050EF3CFDBFFDB507E
:10276000146E070EE15C03E200D0E16AE552E16E0F
:102770001450E552E7CFD9FF1200D9CFE6FFE1CFE1
:10278000D9FF080EE126060EDB6AFB0EDBCFE9FF60
:10279000FC0EDBCFEAFF050EEE1801E1ED5001E083
:1027A000F9D0010EE76EFD0EDBCFE9FFFE0EDBCFA9
:1027B000EAFFE750E926000EEA22EF50000EF35040
:1027C000DE6EDD6A020EE76EFD0EDBCFE9FFFE0E68
:1027D000DBCFEAFFE750E926000EEA22EF50DF12D6
:1027E000DF2A010E01E3DB2A030EE76EFD0EDBCFCD
:1027F000E9FFFE0EDBCFEAFFE750E926000EEA22F2
:10280000EF50000EF350E66ED950020FE96EDACFAA
:10281000EAFFE552E750EE6EED6A040EE76EFD0E3C
:10282000DBCFE9FFFE0EDBCFEAFFE750E926000E23
:10283000EA22EF50E66ED950020FE96EDACFEAFFD6
:10284000E552E750EE6EED6A020EDBCF14F0030E98
:10285000DBCF15F0010E145C000E155801E294D088
:10286000D950020FE96EDACFEAFF7D0ED880EE5420
:10287000000EED5401E288D0FD0EDBCF08F0FE0E15
:10288000DBCF09F0040E08C0DBFF050E09C0DBFF3B
:10289000FB0EDBCFE9FFFC0EDBCFEAFFEE6AED6A51
:1028A000040EDBCFE9FFDB2A050EDBCFEAFF01E3F5
:1028B000DB2A030EEF6EFB0EDBCFE9FFFC0EDBCF56
:1028C000EAFFEE2A000EED22020E086E096ADBCF47
:1028D0000DF0030EDBCF0EF068EC33F00650E66E21
:1028E000040EDBCFE9FFDB2A050EDBCFEAFF01E3B5
:1028F000DB2AE552E750EF6EFB0EDBCFE9FFFC0E63
:10290000DBCFEAFFEE2A000EED22E66A020EDBCFF5
:10291000E6FF030EDBCFE6FFDECFE6FFDDCFE6FF0F
:10292000040EDBCFE6FF050EDBCFE6FFFCEC17F075
:10293000146E070EE15E1450E76E070EE7CFDBFF63
:10294000DB500BE0070EDBCFE6FF92EC25F0E55203
:10295000E76E060EE7CFDBFF16D0020EDBCF14F0DA
:10296000030EDBCF15F0010ED89014361536E806AD
:10297000FBE1FB0EDBCFE9FFFC0EDBCFEAFF1450DF
:10298000EE261550ED2205D0030EF36E060EF3CFA2
:10299000DBFF05D0030EF36E060EF3CFDBFF060E52
:1029A000DB50146E080EE15C03E200D0E16AE552F0
:1029B000E16E1450E552E7CFD9FF1200D9CFE6FF00
:1029C000E1CFD9FF0D0EE1260B0EDB6AFB0EDBCF4C
:1029D000E9FFFC0EDBCFEAFFEECF14F0EFCF15F0EE
:1029E0000A0E145C000E155801E2D0D1010EE76EFC
:1029F000FD0EDBCFE9FFFE0EDBCFEAFFE750E92655
:102A0000000EEA22EF50000EF350DE6EDD6A020E79
:102A1000E76EFD0EDBCFE9FFFE0EDBCFEAFFE750EE
:102A2000E926000EEA22EF50DF12DF2A010E01E351
:102A3000DB2A030EE76EFD0EDBCFE9FFFE0EDBCFD8
:102A4000EAFFE750E926000EEA22EF50000EF350AD
:102A5000E66ED950020FE96EDACFEAFFE552E75091
:102A6000EE6EED6A040EE76EFD0EDBCFE9FFFE0EA3
:102A7000DBCFEAFFE750E926000EEA22EF50146EA2
:102A8000156AD950020FE96EDACFEAFF1450EE1240
:102A90001550ED12050EE76EFD0EDBCFE9FFFE0EC1
:102AA000DBCFEAFFE750E926000EEA22EF50000EE6
:102AB000F350E66ED950040FE96EDACFEAFFE55223
:102AC000E750EE6EED6A060EE76EFD0EDBCFE9FF16
:102AD000FE0EDBCFEAFFE750E926000EEA22EF50B8
:102AE000146E156AD950040FE96EDACFEAFF14505C
:102AF000EE121550ED12040EDB2A050E01E3DB2A5F
:102B0000070EE76EFD0EDBCFE9FFFE0EDBCFEAFF1F
:102B1000E750E926000EEA22EF50000EF350E66E71
:102B2000D950060FE96EDACFEAFFE552E750EE6EB4
:102B3000ED6A080EE76EFD0EDBCFE9FFFE0EDBCF80
:102B4000EAFFE750E926000EEA22EF50146E156AFC
:102B5000D950060FE96EDACFEAFF1450EE12155085
:102B6000ED12090EE76EFD0EDBCFE9FFFE0EDBCFA7
:102B7000EAFFE750E926000EEA22080EEFCFDBFF5E
:102B8000020EDBCF14F0030EDBCF15F0010E145C48
:102B9000000E155801E2F5D0D950020FE96EDACFD8
:102BA000EAFF7D0ED880EE54000EED5401E2E9D02C
:102BB000060EDBCF16F0070EDBCF17F0010E165C0A
:102BC000000E175801E2DDD0D950060FE96EDACFBA
:102BD000EAFF790ED880EE54000EED5401E2D1D018
:102BE000020E086E096A060EDBCF0DF0070EDBCF72
:102BF0000EF068EC33F006C018F007C019F0080EAC
:102C0000DB501A6E1B6A1A50181802E11B50191873
:102C100001E0B7D0010EE66E060EDBCFE6FF070E31
:102C2000DBCFE6FF040EDBCFE6FF050EDBCFE6FFD2
:102C30000A0EE76EFD0EDBCF14F0FE0EDBCF15F0B3
:102C4000E7501426000E152214C0E6FF15C0E6FF5B
:102C5000FCEC17F0166E070EE15E1650E76E0C0ED8
:102C6000E7CFDBFFDB5001E07ED0FD0EDBCF08F0CD
:102C7000FE0EDBCF09F0090E08C0DBFF0A0E09C00B
:102C8000DBFFFB0EDBCFE9FFFC0EDBCFEAFFEE6ADA
:102C9000ED6A090EDBCFE9FFDB2A0A0EDBCFEAFF84
:102CA00001E3DB2A170EEF6EFB0EDBCFE9FFFC0E14
:102CB000DBCFEAFFEE2A000EED22020E086E096A53
:102CC000DBCF0DF0030EDBCF0EF068EC33F00650D7
:102CD000E66E090EDBCFE9FFDB2A0A0EDBCFEAFF47
:102CE00001E3DB2AE552E750EF6EFB0EDBCFE9FF95
:102CF000FC0EDBCFEAFFEE2A000EED22E66A020EA2
:102D0000DBCFE6FF030EDBCFE6FFDECFE6FFDDCF56
:102D1000E6FF090EDBCFE6FF0A0EDBCFE6FFFCEC99
:102D200017F0146E070EE15E1450E76E0C0EE7CF3D
:102D3000DBFFDB5018E1020E086E096ADBCF0DF0F5
:102D4000030EDBCF0EF068EC33F006C014F007C0C2
:102D500015F0FB0EDBCFE9FFFC0EDBCFEAFF1450D2
:102D6000EE261550ED220C0EDB500AE00C0EDBCFE8
:102D7000E6FF92EC25F0E552E76E0B0EE7CFDBFFA6
:102D800005D0030EF36E0B0EF3CFDBFF0B0EDB5003
:102D9000146E0D0EE15C03E200D0E16AE552E16ED3
:0A2DA0001450E552E7CFD9FF1200EE
:062DAA00D9CFE6FFE1CFE6
:102DB000D9FF050EE1260A0EE66E1F0EE66E49ECFF
:102DC00033F0E552E552010EF36EF3CFDBFF020E56
:102DD000DB6A010EDBCF14F0DB06020EDBCF15F051
:102DE00001E2DB061450151006E00A0EE66E3AEC1E
:102DF00034F0E552EED70A0EE66E1E0EE66E49EC92
:102E000033F0E552E552010EF36E030EF3CFDBFF14
:102E1000040EDB6A030EDBCF14F0DB06040EDBCFFF
:102E200015F001E2DB061450151006E00A0EE66EFE
:102E30003AEC34F0E552EED70501386B050EE15C53
:102E400002E2E16AE552E16EE552E7CFD9FF1200F6
:102E5000D9CFE6FFE1CFD9FF0A0EE1268AD90501D5
:102E60003851010A04E0010A01E0A7D0A6D0306B76
:102E70002D0EE66E050EE66E15EC31F0E552E552CC
:102E8000F3CFDEFFF4CFDDFFDECF14F0DDCF15F0A2
:102E90002D0E145C000E155803E30501366B03D0AC
:102EA0000501010E366F360543E10A0EE66E1F0E70
:102EB000E66E49EC33F0E552E552010EF36E020E78
:102EC000F3CFDBFF030EDB6A020EDBCF14F0DB0671
:102ED000030EDBCF15F001E2DB061450151006E0FF
:102EE0000A0EE66E3AEC34F0E552EED7080EE66EC6
:102EF0001E0EE66E49EC33F0E552E552010EF36E1C
:102F0000040EF3CFDBFF050EDB6A040EDBCF14F0FB
:102F1000DB06050EDBCF15F001E2DB0614501510C1
:102F200006E00A0EE66E3AEC34F0E552EED744D0F5
:102F3000365142E1080EE66E1F0EE66E49EC33F0A4
:102F4000E552E552010EF36E060EF3CFDBFF070EDE
:102F5000DB6A060EDBCF14F0DB06070EDBCF15F0C5
:102F600001E2DB061450151006E00A0EE66E3AEC9C
:102F700034F0E552EED70A0EE66E1E0EE66E49EC10
:102F800033F0E552E552010EF36E080EF3CFDBFF8E
:102F9000090EDB6A080EDBCF14F0DB06090EDBCF6F
:102FA00015F001E2DB061450151006E00A0EE66E7D
:102FB0003AEC34F0E552EED700D00A0EE15C02E2C2
:102FC000E16AE552E16EE552E7CFD9FF1200D9CFB1
:102FD000E6FFE1CFD9FF030EE126DF6ADF50146E72
:102FE000030EE15C03E200D0E16AE552E16E1450A9
:102FF000E552E7CFD9FF1200D9CFE6FFE1CFD9FFE5
:103000000E0EE126FB0EDB50DF6E020E086E096A23
:10301000F90EDBCF0DF0FA0EDBCF0EF068EC33F0DB
:10302000010E06C0DBFF020EDB6A030EDB6AD9501D
:10303000040FE96EDACFEAFF490EEE6E440EEE6E33
:10304000450EEE6E4F0EEE6E4E0EEE6E490EEE6EAD
:10305000430EEE6E530EEE6E200EEE6EEE6AF80E1E
:10306000DB502FE0010A01E061D0010EDB500008C7
:103070001CE2FD0EDBCFE9FFDB2AFE0EDBCFEAFF11
:1030800001E3DB2AEF50E66E030EDBCFF3FFDB2A12
:10309000F350EA6A000FE96E050EEA22E552E750A6
:1030A000EF6EDF2A010EDB06E0D7030EDB50EA6A83
:1030B000000FE96E050EEA22EF6A0501010E376F77
:1030C00035D0010EDB50000830E2FD0EDBCFE9FF0A
:1030D000DB2AFE0EDBCFEAFF01E3DB2A410EEF6EB7
:1030E000FD0EDBCFE9FFDB2AFE0EDBCFEAFF01E3BB
:1030F000DB2A420EEF6EFD0EDBCFE9FFDB2AFE0E70
:10310000DBCFEAFF01E3DB2A430EEF6EFD0EDBCFE0
:10311000E9FFDB2AFE0EDBCFEAFF01E3DB2A440EE8
:10312000EF6EDF2A010EDB06CCD700D0020EDB509B
:10313000146E0E0EE15C03E200D0E16AE552E16E2E
:103140001450E552E7CFD9FF1200D9CFE6FFE1CF07
:10315000D9FF010E00D0E552E7CFD9FF1200D9CF39
:10316000E6FFE1CFD9FF010E00D0E552E7CFD9FF4E
:103170001200D9CFE6FFE1CFD9FF0F0EE126DF6ABB
:10318000020EDB6A0501370501E0C6D100C5DFFF8D
:10319000DF50860A01E187D1030A01E13CD1010A2F
:1031A00001E102D1070A01E1C6D0010A01E186D09E
:1031B000030A52E0010A01E0ADD1E66A26EC07F00D
:1031C000E5520501396B060E3A6FC30EE66E030E2B
:1031D000E66EF0EC31F0E552E552F3CF3DF5050136
:1031E000C30E3B6F030E3C6F3E6B390EE66E050E51
:1031F000E66EE66AEAEC01F0E552E552E552DE528F
:10320000060EDD6E010EDB501F0825E30A0EE66E8A
:10321000010EDBCFE6FF49EC33F0E552E552010E3B
:10322000F36E030EF3CFDBFF040EDB6A030EDBCF7E
:1032300014F0DB06040EDBCF15F001E2DB061450C0
:10324000151006E00A0EE66E3AEC34F0E552EED7C1
:10325000010EDB2AD7D75ED1010EE66E050EE66EB3
:10326000190EE66E050EE66ECFEC31F0E552E55232
:10327000E552E552E66A26EC07F0E5520501396BA6
:10328000060E3A6F190EE66E050EE66EF0EC31F0A2
:10329000E552E552F3CF3DF50501190E3B6F050EE2
:1032A0003C6F030E3E6F390EE66E050EE66EE66A63
:1032B000EAEC01F0E552E552E5522CD1DE52060E61
:1032C000DD6E020EDB6A010EDB50070833E3020EEF
:1032D000DBCFE6FFE552D880E754EA6A000FE96EDB
:1032E000050EEA22EF50D00FE66E010EDBCFE6FFAF
:1032F00049EC33F0E552E552010EF36E050EF3CFC3
:10330000DBFF060EDB6A050EDBCF14F0DB06060ED4
:10331000DBCF15F001E2DB061450151006E00A0EB3
:10332000E66E3AEC34F0E552EED7010EDB2A020EDF
:10333000DB2AC9D7EFD0DE52090EDD6E020EDB6A42
:10334000010EDB500C082FE3020EDB28EA6A000FA7
:10335000E96E050EEA22EF50D00FE66E010EDBCFCC
:10336000E6FF49EC33F0E552E552010EF36E070E2D
:10337000F3CFDBFF080EDB6A070EDBCF14F0DB06B2
:10338000080EDBCF15F001E2DB061450151006E045
:103390000A0EE66E3AEC34F0E552EED7010EDB2A67
:1033A000020EDB2ACDD7B6D0DE520D0EDD6E010E39
:1033B000DB5010082FE3020EDB28EA6A000FE96EEB
:1033C000050EEA22EF50D00FE66E010EDBCFE6FFCE
:1033D00049EC33F0E552E552010EF36E090EF3CFDE
:1033E000DBFF0A0EDB6A090EDBCF14F0DB060A0EE8
:1033F000DBCF15F001E2DB061450151006E00A0ED3
:10340000E66E3AEC34F0E552EED7010EDB2A020EFE
:10341000DB2ACDD77FD0010EE66E050EE66E2D0EAF
:10342000E66E050EE66ECFEC31F0E552E552E55260
:10343000E552DE52110EDD6E010EDB5015082FE352
:10344000020EDB28EA6A000FE96E050EEA22EF5051
:10345000D00FE66E010EDBCFE6FF49EC33F0E5520C
:10346000E552010EF36E0B0EF3CFDBFF0C0EDB6AA1
:103470000B0EDBCF14F0DB060C0EDBCF15F001E2F8
:10348000DB061450151006E00A0EE66E3AEC34F036
:10349000E552EED7010EDB2A020EDB2ACDD705015D
:1034A000010E386F37D0DE52160EDD6E010EDB5086
:1034B0001A082FE3020EDB28EA6A000FE96E050EF8
:1034C000EA22EF50D00FE66E010EDBCFE6FF49ECAB
:1034D00033F0E552E552010EF36E0D0EF3CFDBFF34
:1034E0000E0EDB6A0D0EDBCF14F0DB060E0EDBCF0B
:1034F00015F001E2DB061450151006E00A0EE66E28
:103500003AEC34F0E552EED7010EDB2A020EDB2A4C
:10351000CDD700D00501376B0F0EE15C02E2E16A06
:10352000E552E16EE552E7CFD9FF1200D9CFE6FFB1
:10353000E1CFD9FF100EE126010EDB6A0301CA2B91
:10354000D950020FE66E000EDA20E66E95EC0DF013
:10355000E552E552640E0301CA5D32E3DF6A070EED
:10356000DF5C2CE2D950020F146EDACF15F0DF5079
:103570000F011424E96E000E1520EA6EEF50E66E7E
:10358000F6EC33F0E552140EF36E0C0EF3CFDBFFC6
:103590000D0EDB6A0C0EDBCF14F0DB060D0EDBCF5D
:1035A00015F001E2DB061450151006E00A0EE66E77
:1035B0003AEC34F0E552EED7DF2AD1D70301CA6BDB
:1035C000030EDB500F0B300FE76E080EE7CFDBFF6B
:1035D000030EDB50F00BE8380F0B300FE76E090ECF
:1035E000E7CFDBFF040EDB500F0B300FE76E0A0E48
:1035F000E7CFDBFF040EDB50F00BE8380F0B300F8A
:10360000E76E0B0EE7CFDBFF0D0EDF6EDF5010080D
:1036100038E3D950080F146EDACF15F0010EDBCF66
:10362000E6FF030EE552D880E7540F011424E96E3B
:10363000000E1520EA6EEF50D00FE66EDFCFE6FFEA
:1036400049EC33F0E552E552010EF36E0E0EF3CF66
:10365000DBFF0F0EDB6A0E0EDBCF14F0DB060F0E66
:10366000DBCF15F001E2DB061450151006E00A0E60
:10367000E66E3AEC34F0E552EED7DF2A010EDB2A93
:10368000C5D7100EE15C02E2E16AE552E16EE55257
:06369000E7CFD9FF120094
:0A369600D9CFE6FFE1CFD9FF090EFE
:1036A000E126070EDB6AFB0EDBCFE9FFFC0EDBCF6A
:1036B000EAFF050EEE1801E1ED5001E011D1010E17
:1036C000E76EFD0EDBCFE9FFFE0EDBCFEAFFE75032
:1036D000E926000EEA22EF50000EF350DE6EDD6A9E
:1036E000020EE76EFD0EDBCFE9FFFE0EDBCFEAFF39
:1036F000E750E926000EEA22EF50DF12DF2A010E22
:1037000001E3DB2A030EE76EFD0EDBCFE9FFFE0EC1
:10371000DBCFEAFFE750E926000EEA22EF50000E69
:10372000F350E66ED950020FE96EDACFEAFFE552A8
:10373000E750EE6EED6A040EE76EFD0EDBCFE9FF9B
:10374000FE0EDBCFEAFFE750E926000EEA22EF503B
:10375000146E156AD950020FE96EDACFEAFF1450E1
:10376000EE121550ED12020EDBCF14F0030EDBCF7C
:1037700015F0010E145C000E155801E2ABD0020EDC
:10378000DBCF16F0030EDBCF17F0D00E165C070E62
:10379000175801E39FD0FD0EDBCF08F0FE0EDBCF04
:1037A00009F0050E08C0DBFF060E09C0DBFFFB0EAB
:1037B000DBCFE9FFFC0EDBCFEAFFEE6AED6A050E18
:1037C000DBCFE9FFDB2A060EDBCFEAFF01E3DB2AD2
:1037D000010EEF6EFB0EDBCFE9FFFC0EDBCFEAFF45
:1037E000EE2A000EED22020EDB50070B15E0020E52
:1037F000DBCF14F0030EDBCF15F00F0B05E0D890F4
:1038000015321432E806FBE1010E1426000E1522D3
:10381000040E14C0DBFF12D0080E146E156A020EDF
:10382000DBCF08F0030EDBCF09F014C00DF015C09C
:103830000EF024EC34F0040E08C0DBFF050EDBCFE5
:10384000E9FFDB2A060EDBCFEAFF01E3DB2A040EE9
:10385000DBCFEFFFFB0EDBCFE9FFFC0EDBCFEAFF98
:10386000EE2A000EED22E66A020EDBCFE6FF030E23
:10387000DBCFE6FFDECFE6FFDDCFE6FF050EDBCFD9
:10388000E6FF060EDBCFE6FFA5EC18F0146E070E80
:10389000E15E1450E76E080EE7CFDBFFDB500BE074
:1038A000080EDBCFE6FF92EC25F0E552E76E070E3F
:1038B000E7CFDBFF0ED0040EDB50146E156AFB0E53
:1038C000DBCFE9FFFC0EDBCFEAFF1450EE261550EC
:1038D000ED2205D0030EF36E070EF3CFDBFF05D00C
:1038E000030EF36E070EF3CFDBFF070EDB50146EF3
:1038F000090EE15C03E200D0E16AE552E16E14508A
:10390000E552E7CFD9FF1200D9CFE6FFE1CFD9FFCB
:10391000060EE126040EDB6AFB0EDBCFE9FFFC0E90
:10392000DBCFEAFF050EEE1801E1ED5001E091D08A
:10393000010EE76EFD0EDBCFE9FFFE0EDBCFEAFFE7
:10394000E750E926000EEA22EF50000EF350DE6E3B
:10395000DD6A020EE76EFD0EDBCFE9FFFE0EDBCF68
:10396000EAFFE750E926000EEA22EF50DF12DF2AD5
:10397000010E01E3DB2A040EE76EFD0EDBCFE9FF4B
:10398000FE0EDBCFEAFFE750E926000EEA22EF50F9
:103990005AE1030EE76EFD0EDBCFE9FFFE0EDBCF33
:1039A000EAFFE750E926000EEA22EF50FF080EE09A
:1039B000030EE76EFD0EDBCFE9FFFE0EDBCFEAFF65
:1039C000E750E926000EEA22EF503DE1030EDB6AE4
:1039D000E76EFD0EDBCFE9FFFE0EDBCFEAFFE7501F
:1039E000E926000EEA22EF50FF0806E1010EF36E11
:1039F000020EF3CFDBFF02D0020EDB6A010EE66E91
:103A0000E66EE66ADECFE6FFDDCFE6FFD950020FB5
:103A1000E66E000EDA20E66EA5EC18F0146E070EC6
:103A2000E15E1450E76E050EE7CFDBFFDB500AE0E6
:103A3000050EDBCFE6FF92EC25F0E552E76E040EB3
:103A4000E7CFDBFF05D0030EF36E040EF3CFDBFFF1
:103A500005D0030EF36E040EF3CFDBFF040EDB5034
:103A6000146E060EE15C03E200D0E16AE552E16EFD
:103A70001450E552E7CFD9FF1200D9CFE6FFE1CFCE
:103A8000D9FF080EE126060EDB6AFB0EDBCFE9FF4D
:103A9000FC0EDBCFEAFF050ED880EE54000EED548D
:103AA00001E3EED0010EE76EFD0EDBCFE9FFFE0E67
:103AB000DBCFEAFFE750E926000EEA22EF50000EC6
:103AC000F350DE6EDD6A020EE76EFD0EDBCFE9FF1E
:103AD000FE0EDBCFEAFFE750E926000EEA22EF50A8
:103AE000DF12DF2A010E01E3DB2A030EE76EFD0E73
:103AF000DBCFE9FFFE0EDBCFEAFFE750E926000E41
:103B0000EA22EF50000EF350E66ED950020FE96E34
:103B1000DACFEAFFE552E750EE6EED6A040EE76E8B
:103B2000FD0EDBCFE9FFFE0EDBCFEAFFE750E92613
:103B3000000EEA22EF50146E156AD950020FE96E9A
:103B4000DACFEAFF1450EE121550ED12050EE76EB3
:103B5000FD0EDBCFE9FFFE0EDBCFEAFFE750E926E3
:103B6000000EEA22040EEFCFDBFF020EDB50070B44
:103B700015E0020EDBCF14F0030EDBCF15F00F0BB8
:103B800005E0D89015321432E806FBE1010E142648
:103B9000000E1522050E14C0DBFF12D0080E146EA5
:103BA000156A020EDBCF08F0030EDBCF09F014C05C
:103BB0000DF015C00EF024EC34F0050E08C0DBFF4C
:103BC000020EDBCF14F0030EDBCF15F0010E145CF8
:103BD000000E15584FE3D950020FE96EDACFEAFF15
:103BE000B00ED880EE54070EED5444E3040EDB50C3
:103BF000F36E050EDB50F35C3DE1010EE66E020E46
:103C0000DBCFE6FF030EDBCFE6FFDECFE6FFDDCF47
:103C1000E6FF060EE76EFD0EDBCF14F0FE0EDBCFE7
:103C200015F0E7501426000E152214C0E6FF15C04B
:103C3000E6FFA5EC18F0166E070EE15E1650E76E73
:103C4000070EE7CFDBFFDB500BE0070EDBCFE6FF15
:103C500092EC25F0E552E76E060EE7CFDBFF09D0C8
:103C6000FB0EDBCFE9FFFC0EDBCFEAFF050EEE6EAD
:103C7000ED6A05D0030EF36E060EF3CFDBFF05D021
:103C8000030EF36E060EF3CFDBFF060EDB50146E51
:103C9000080EE15C03E200D0E16AE552E16E1450E7
:083CA000E552E7CFD9FF120045
:083CA800D9CFE6FFE1CFD9FFFF
:103CB000E652DF6AFD0EDB5013E0010EF36EFD0EDF
:103CC000DBCFF4FFF350F45C0BE3FD0EDB50146E1E
:103CD000156A153404E21450F708000E155403E277
:103CE000020EDF6E5DD0FD0EDBCF4CF3FE0EDB501F
:103CF00001E045D00301EE0E516F430E526F536B3E
:103D00000A0E546F440E556F566B000E4E6F450EE3
:103D10004F6F506B200E576F440E586F596B5A6B94
:103D20005B6B5C6B100E5D6F460E5E6F5F6BDE0E45
:103D3000606F460E616F626B6C0E636F470E646F4F
:103D4000656BF70EDBCFE6FFD950F80FE96EFF0E7B
:103D5000DA20EA6EEECFE6FFEECFE6FFEECFE6FF2B
:103D6000EFCFE6FFFC0EDBCFE6FF4CC3E6FF57ECE0
:103D700021F0146E070EE15E1450DF6E02D0020EC9
:103D8000DF6EDF500DE192EC32F0000903E1030E2B
:103D9000DF6E06D0FE0EDBCF4DF30101010EB66FD4
:103DA000DF5000D0E552E552E7CFD9FF1200D9CF5E
:103DB000E6FFE1CFD9FF030EE126146AFE0EDB50C9
:103DC000145C01E3ECD0FE0EDB507F0801E2E7D08B
:103DD000F29EFB0EDBCF14F0FC0EDBCF15F0FD0ED8
:103DE000DBCF16F014501510161001E18BD0DE6AEF
:103DF000DD6ADECF14F0DDCF15F0D890155004E663
:103E0000100E145C000E15586CE2DECFE9FFDDCF1A
:103E1000EAFFD890E936EA36D890E936EA36B70EA6
:103E2000E926010EEA22EECF14F0EECF15F0EECF28
:103E300016F0EFCF17F0000115501610171022E002
:103E4000FB0EDBCF18F0FC0EDBCF19F0FD0EDBCF45
:103E50001AF0DECFE9FFDDCFEAFFD890E936EA3687
:103E6000D890E936EA36B70EE926010EEA22EE527C
:103E7000EE50181806E1EE50191803E1EE501A182A
:103E800000E12AE1DECFE9FFDDCFEAFFD890E93695
:103E9000EA36D890E936EA36B70EE926010EEA226C
:103EA000FE0EDBCFEFFFDECFE9FFDDCFEAFFD890DC
:103EB000E936EA36D890E936EA36B70EE926010E39
:103EC000EA22EE52FB0EDBCFEEFFFC0EDBCFEEFF65
:103ED000FD0EDBCFEEFF05D0DF2A010E01E3DB2A6A
:103EE00088D7D9CFE9FFDACFEAFF100EEE1801E14B
:103EF000ED5002E0000E01D0040EE76E020EE7CF97
:103F0000DBFF4BD0DE6ADD6ADECF14F0DDCF15F0CB
:103F1000D890155004E6100E145C000E15583BE2C4
:103F2000DECFE9FFDDCFEAFFD890E936EA36D89058
:103F3000E936EA36B70EE926010EEA22EFCF14F091
:103F4000FE0EDB50145C22E1DECFE9FFDDCFEAFF9D
:103F5000D890E936EA36D890E936EA36B70EE9263F
:103F6000010EEA22EF6ADECFE9FFDDCFEAFFD8904B
:103F7000E936EA36D890E936EA36B70EE926010E78
:103F8000EA22EE52EE6AEE6AEE6A05D0DF2A010EF0
:103F900001E3DB2AB9D7020EDB6AF28E04D0020EEF
:103FA000F36EF3CFDBFFDB50146E030EE15C03E234
:103FB00000D0E16AE552E16E1450E552E7CFD9FF37
:103FC0001200D9CFE6FFE1CFD9FFE652DF6A010147
:103FD000B6050FE103015A515B115C1109E007D0EE
:103FE0005CC3FBFF5BC3FAFF03015A51F96EF8DFB4
:103FF00002D0060EDF6EDF5000D0E552E552E7CF6B
:10400000D9FF1200D9CFE6FFE1CFD9FFE652DF6A30
:104010000101B6050CE107D053C3FBFF52C3FAFF01
:1040200003015151F96EF8DF0101B66B02D0060EA3
:10403000DF6EDF5000D0E552E552E7CFD9FF120026
:10404000D9CFE6FFE1CFD9FFE6520101B6510EE12B
:1040500007D056C3FBFF55C3FAFF03015451F96E55
:10406000F8DF0101010EB66FDF6A06D0B60502E186
:10407000DF6A02D0060EDF6EDF5000D0E552E55257
:10408000E7CFD9FF1200D9CFE6FFE1CFD9FF040E69
:10409000E126020EDB6A0101B65102E0060EFBD0FA
:1040A000D950030FE66E000EDA20E66EA7EC32F070
:1040B000E552E552010801E0ECD0030EDB50030AA3
:1040C00001E1E6D0010A31E0030A04E0010A01E05F
:1040D000E0D0DFD0700EE66E030EE66E6C0EE66E7C
:1040E000030EE66E6E0EE66E030EE66E07D059C343
:1040F000FBFF58C3FAFF03015751F96EF8DF146E46
:10410000060EE15E1450E76E020EE7CFDBFFDB50D8
:104110000BE103014C516E5D02E06E5105E1020EB0
:10412000E66E97EC32F0E552B4D06CC3E9FF6DC394
:10413000EAFFEFCF6FF30301010E726FDE6ADD6AF3
:10414000DECF14F0DDCF15F0D890155004E6100E38
:10415000145C000E155857E2DECFE9FFDDCFEAFF11
:10416000D890E936EA36D890E936EA36B70EE9262D
:10417000010EEA22EF5002E146D040D0DECFE9FF47
:10418000DDCFEAFFD890E936EA36D890E936EA364C
:10419000B70EE926010EEA22EF5003016F5D2EE112
:1041A000DECFE9FFDDCFEAFFD890E936EA36D890D6
:1041B000E936EA36B70EE926010EEA22EECF14F010
:1041C000EECF15F0EECF16F0EFCF17F0700EE66ED3
:1041D000030EE66E6CC3E6FF6DC3E6FF07D017C0A3
:1041E000FBFF16C0FAFF00011550F96EF8DFE5522B
:1041F000E552E552E5520301726F05D0DF2A010E48
:1042000001E3DB2A9DD703016E5141E0725124E0A6
:10421000706B716B800E6F11E66E70C314F071C31A
:1042200015F0702B000E71236C511424E96E6D5142
:104230001520EA6EE552E750EF6E70C314F071C3BB
:1042400015F0702B000E71236C511424E96E6D5122
:104250001520EA6E72C3EFFF70C3E6FF71C3E6FF7D
:104260006CC3E6FF6DC3E6FF4CC3E6FF07D050C347
:10427000FBFF4FC3FAFF03014E51F96EF8DF146ED6
:10428000050EE15E1450E76E020EE7CFDBFF01D0B2
:1042900000D0000E00D0146E040EE15C02E2E16A70
:0E42A000E552E16E1450E552E7CFD9FF12004F
:0242AE00D9CF66
:1042B000E6FFE1CFD9FF050EE126DF6A9D9AF80EF1
:1042C000DBCFE6FF080EE66ED950F90FE96EFF0E60
:1042D000DA20EA6EEECFE6FFEECFE6FFEECFE6FFA6
:1042E000EFCFE6FFFD0EDBCFE6FF64EC27F0146EA8
:1042F000070EE15E1450010803E0030EDF6E68D084
:10430000D950F90FE96EFF0EDA20EA6ED880020E5E
:10431000EE54000EEE54000EEE54000EEE540FE27A
:10432000A30EF36E010EF3CFDBFFBB0EF36E020E96
:10433000F3CFDBFF030EDB6A040EDB6A3BD0D95000
:10434000F90FE96EFF0EDA20EA6E010EEE1805E1B4
:10435000EE5003E1EE5001E1EE500FE1CF0EF36EAF
:10436000010EF3CFDBFF710EF36E020EF3CFDBFF16
:10437000030EDB6A040EDB6A1DD0D950F90FE96E1B
:10438000FF0EDA20EA6E020EEE1805E1EE5003E1B0
:10439000EE5001E1EE500EE1E70EF36E010EF3CFA9
:1043A000DBFFB80EF36E020EF3CFDBFF030EDB6A0A
:1043B000040EDB6A010EDBCFE6FF020EDBCFE6FF69
:1043C0009AEC30F0E552E552010802E0030EDF6E90
:1043D0009D8ADF50146E050EE15C03E200D0E16AB5
:1043E000E552E16E1450E552E7CFD9FF12009D9AD5
:1043F0000101FC6BE66A010EE66E49EC27F0E5521E
:10440000E552B1EC30F09D8A12009D9AE66AE66AA8
:1044100049EC27F0E552E552BCEC30F09D8A1200E1
:10442000D9CFE6FFE1CFD9FF040EE126DF6A010E06
:10443000DB6A9D9A0301460E4A5D000E4B5902E36A
:10444000050E52D0040E4A5D000E4B5946E34AC396
:10445000E6FF4BC3E6FF000EE66E030EE66E1CECB5
:1044600030F0E552E552E552E552020EF3CFDBFFA4
:10447000030EF4CFDBFFD950020FE96EDACFEAFF6B
:10448000EE50ED1029E1FD0EDBCFE9FFFE0EDBCF94
:10449000EAFF00C3EFFF4AC314F04BC315F0140644
:1044A000000E155A020E145E000E155AF90EDBCFDF
:1044B000E9FFFA0EDBCFEAFF14C0EEFF15C0EDFFF7
:1044C000FB0EDBCFE9FFFC0EDBCFEAFF010EEE6E49
:1044D000030EED6E010EDF6E03D0DE52050EDD6EB3
:1044E0009D8A010EDB5000D0146E040EE15C02E2E6
:1044F000E16AE552E16E1450E552E7CFD9FF1200B0
:10450000D9CFE6FFE1CFD9FF030EE126DF6A9D9AFE
:104510000101FC056CE1FC0EDBCF46F3FD0EDBCFA9
:1045200047F30301010E465F000E475B010E486F23
:10453000496BFE0EDB5046C3E9FF47C3EAFFEF6E4F
:10454000FA0EDBCF08F0FB0EDBCF09F0085048274E
:104550000950492348C3E6FF49C3E6FF46C3E6FFC7
:1045600047C3E6FF1CEC30F0E552E552E552E55258
:10457000DE52F3CFDEFFF4CFDDFFDD52FF0EE76E3C
:10458000010EDBCF14F0020EDBCF15F0E75014164E
:10459000156A030148C3E9FF49C3EAFF482B000E2F
:1045A0004923000EE926030EEA2214C0EFFF010E94
:1045B000DBCF14F0020EDBCF15F015C014F0156A36
:1045C00048C3E9FF49C3EAFF482B000E4923000E08
:1045D000E926030EEA2214C0EFFF0101010EFB6F72
:1045E000E66EE66A49EC27F0E552E55202D0050E88
:1045F000DF6E9D8ADF50146E030EE15C03E200D093
:10460000E16AE552E16E1450E552E7CFD9FF12009E
:10461000D9CFE6FFE1CFD9FF020EE126DF6A010123
:10462000FB5102E0000E4FD0D950010FE66E000E94
:10463000DA20E66EE4EC27F0E552E5520101FC5188
:10464000020A24E0030A0BE0020A06E0030A01E082
:1046500038D0B1EC30F035D0B1EC30F032D00301CD
:104660004A6B4B6B4AC3E9FF4BC3EAFF4A2B000E70
:104670004B23000EE926030EEA22010EDBCFEFFFEB
:104680000101020EFC6FB1EC30F01BD00301460EAD
:104690004A5D000E4B590FE24AC3E9FF4BC3EAFFE4
:1046A0004A2B000E4B23000EE926030EEA22010ED0
:1046B000DBCFEFFF03D00101030EFC6FB1EC30F054
:1046C00000D0DF5000D0146E020EE15C02E2E16A1D
:1046D000E552E16E1450E552E7CFD9FF1200D9CF71
:1046E000E6FFE1CFD9FFE652DF6A0101FC0502E0F7
:1046F000000E37D0FB51010A0BE0010A01E02FD078
:10470000E66A010EE66E49EC27F0E552E55227D045
:104710000301000ED8804855000E495510E246C3EB
:10472000E9FF47C3EAFFEF50E66EC9EC27F0E55218
:104730000301462B000E47234807495BE9D7030EC8
:10474000E66E97EC32F0E552DF6EE66A010EE66E39
:1047500049EC27F0E552E5520101FB6B00D0DF5038
:1047600000D0E552E552E7CFD9FF1200D9CFE6FFDE
:10477000E1CFD9FFE652DF6A0101FC51030A12E0E2
:10478000010A09E0020A01E00ED0E66A97EC32F075
:10479000E552DF6E08D0010EE66E97EC32F0E5527E
:1047A000DF6E01D000D0BCEC30F00101010EFC6FD7
:0E47B000DF5000D0E552E552E7CFD9FF1200EE
:0247BE00D9CF51
:1047C000E6FFE1CFD9FF0A0EE126F90EDB50E66ED7
:1047D000D950080FE96EDACFEAFFE552E750EE6EE6
:1047E000ED6AFA0EDB50080801E2F1D0080E146EF3
:1047F000156AFB0EDBCF08F0FC0EDBCF09F014C00E
:104800000DF015C00EF024EC34F0040E08C0DBFFF0
:10481000050E09C0DBFFFB0EDBCF16F0FC0EDBCF75
:1048200017F0080E086E096A040EDBCF0DF0050EB6
:10483000DBCF0EF068EC33F00650165C146E0750B8
:104840001758156E060E14C0DBFF070E15C0DBFFF0
:10485000060EDBCF14F0D950080FE96EDACFEAFF6D
:104860001450E85005E0D890EE36ED36E806FBE14E
:10487000FA0EDB50166E010E165204E0E846FE0BEF
:104880001606FCE1FF0F146E156A14BE1568020EC1
:1048900014C0DBFF030E15C0DBFFFB0EDBCF16F0F1
:1048A000FC0EDBCF17F0080E086E096A040EDBCF92
:1048B0000DF0050EDBCF0EF068EC33F00650165C01
:1048C000146E07501758156ED950020FE96EDACFE3
:1048D000EAFF1450E85005E0D890EE36ED36E806D1
:1048E000FBE1040EDBCF14F0050EDBCF15F0FD0E5F
:1048F000DB501424E96EFE0EDB501520EA6EEF50FB
:10490000DE6EDD6A010EE76E040EDBCF14F0050EDD
:10491000DBCF15F0E7501426000E1522FD0EDB50FC
:104920001424E96EFE0EDB501520EA6EEF50000EE7
:10493000F350DF12020EDB1C186E030EDB1C196E27
:10494000DE501814166EDD501914176E080EDB5069
:104950001610146E090EDB501710156E14C0DEFF12
:1049600015C0DDFFDECF16F0DDCF17F0FF0E1616F7
:10497000000E1716040EDBCF14F0050EDBCF15F07A
:10498000FD0EDB501424E96EFE0EDB501520EA6E9E
:1049900016C0EFFFDECF16F0DDCF17F017C016F010
:1049A000176A010EE76E040EDBCF14F0050EDBCFA5
:1049B00015F0E7501426000E1522FD0EDB501424CE
:1049C000E96EFE0EDB501520EA6E16C0EFFF0A0EF0
:1049D000E15C02E2E16AE552E16EE552E7CFD9FF20
:1049E0001200D9CFE6FFE1CFD9FF080EE126146E01
:1049F000156AFB0EDBCF08F0FC0EDBCF09F014C00C
:104A00000DF015C00EF024EC34F0040E08C0DBFFEE
:104A1000050E09C0DBFFFB0EDBCF16F0FC0EDBCF73
:104A200017F0080E086E096A040EDBCF0DF0050EB4
:104A3000DBCF0EF068EC33F00650165C146E0750B6
:104A40001758156E060E14C0DBFF070E15C0DBFFEE
:104A5000FA0EDB50166E010E165204E0E846FE0B0D
:104A60001606FCE1FF0F146E156A14BE1568020EDF
:104A700014C0DBFF030E15C0DBFF040EDBCF14F008
:104A8000050EDBCF15F0FD0EDB501424E96EFE0E93
:104A9000DB501520EA6EEF50DE6EDD6A010EE76E28
:104AA000040EDBCF14F0050EDBCF15F0E750142613
:104AB000000E1522FD0EDB501424E96EFE0EDB50B5
:104AC0001520EA6EEF50000EF350DF12060EDBCF1A
:104AD00014F0D9CFE9FFDACFEAFF14500F0B06E04C
:104AE000EC52D890ED32EF32E806FAE1020EDBCF5D
:104AF00014F0030EDBCF15F0D9CFE9FFDACFEAFFD0
:104B00001450EE161550ED16DF50146E080EE15CD1
:104B100003E200D0E16AE552E16E1450E552E7CFBE
:104B2000D9FF1200D9CFE6FFE1CFD9FFE652FE0E42
:104B3000DB50070A0CE0060A07E0010A03E0040E56
:104B4000DF6E08D0DF6A06D0020EDF6E03D0060EDD
:104B5000DF6E00D0DF5000D0E552E552E7CFD9FF3D
:024B6000120041
:0E4B62000000000000000000202020200000C5
:104B7000200050505000000000005050F850F850F5
:104B800050002078A07028F02000C0C81020409865
:104B900018006090A040A8906800602040000000CD
:104BA0000000102040404020100040201010102035
:104BB00040000020A870A8200000002020F820203D
:104BC000000000000000301020000000007C000009
:104BD000000000000000006060000008102040801D
:104BE000000030486878584830002060A02020201D
:104BF000F8003048080810207800700808300808CD
:104C0000700010305090F810100078404070080884
:104C100070003048407048483000F808102040408C
:104C2000400030484830484830003048483808484C
:104C30003000006060006060000000606000602084
:104C4000400008102040201008000000F800F80084
:104C5000000040201008102040007088081020003C
:104C6000200070880868A8A8700030484878484834
:104C70004800704848704848700038404040404004
:104C800038007048484848487000784040704040BC
:104C900078007840407040404000304840584848D4
:104CA000300048484878484848007020202020209C
:104CB00070007020202020A06000485060406050AC
:104CC0004800404040404040700088D8A8A88888EC
:104CD000880048486878584848003048484848485C
:104CE00030007048487040404000304848486850A4
:104CF000280070484870484848003048403008480C
:104D00003000F8202020202020004848484848480B
:104D100030008888888888502000888888A8A8A8BB
:104D200050004848483048484800505050502020D3
:104D300020007808183060407800704040404040C3
:104D400070008850F820F82020007010101010100B
:104D500070002050880000000000000000000000EB
:104D6000F800402010000000000000007008788863
:104D700078008080B0C88888F0000000708080884B
:104D80007000080868988888780000007088F880AB
:104D90007000304840E04040400000788888780843
:104DA00070008080B0C888888800200060202020A3
:104DB0007000080008080848300040404850605023
:104DC000480060202020202070000000D0A8A88883
:104DD00088000000B0C88888880000007088888833
:104DE00070000000F088F08080000000689878086B
:104DF00008000000B0C8808080000000708070084B
:104E0000F0004040E040404830000000888888982A
:104E10006800000088888850200000008888A8A8C2
:104E200050000000885020508800000088887808D2
:104E300070000000F8102040F800102020402020D2
:104E4000100020202020202020002010100810100A
:104E50002000002010F810200000002040F8402022
:104E60000000304848300000000030484830000062
:104E70000000081838783818080000008005C004C1
:104E8000E003F002F801000008041803380278017A
:024E9000F80028
:0E4E9200D9CFE6FFE1CFD9FFFE0EDB5002E1E3
:104EA000AB9801D0AB88FD0EDB5001E109D007D0F3
:104EB00062C3FBFF61C3FAFF03016051F96EF8DFC3
:104EC000E552E7CFD9FF1200D9CFE6FFE1CFD9FFF6
:104ED000020EE1263C0EDF6EFA0EDBCF07F0FB0E72
:104EE000DBCF08F0FC0EDBCF09F0FD0EDBCF0AF0C4
:104EF000040E071805E1085003E1095001E10A50CA
:104F00002AE0030E071805E1085003E1095001E10A
:104F10000A501DE0020E071805E1085003E1095090
:104F200001E10A5010E0010E071805E1085003E105
:104F3000095001E10A5004E0DE52810EDD6E0FD00F
:104F4000010EDB680CD0DE52810EDD6E08D0DE5221
:104F50002A0EDD6E04D0DE52150EDD6E00D0010E7D
:104F6000DBCFE6FFE66ADFCFE6FF4DEC32F0E5523D
:104F7000E552E5529F8A010E146E020EE15C03E2D7
:104F800000D0E16AE552E16E1450E552E7CFD9FF57
:104F90001200D9CFE6FFE1CFD9FF8284640EE66E1E
:104FA00075EC34F0E552FE0EDB50AD6EACA2FED7D0
:104FB0008294640EE66E75EC34F0E552010E00D07A
:104FC000E552E7CFD9FF1200D9CFE6FFE1CFD9FFF5
:104FD000E6522AEC33F0DF6EFD0EDBCFE9FFFE0E6A
:104FE000DBCFEAFFDFCFEFFF9E9A010E00D0E55244
:104FF000E552E7CFD9FF1200DACFE4FFE2CFDAFFC4
:10500000E9CFE4FFEACFE4FFF6CFE4FFF7CFE4FF18
:10501000F5CFE4FFF3CFE4FFF4CFE4FFFACFE4FFF2
:10502000FBCFE4FF00EE00F0140EE80403E3EECF44
:10503000E4FFFBD700EE14F00A0EE80403E3EECF22
:10504000E4FFFBD7E65207D062C3FBFF61C3FAFF60
:1050500003016051F96EF8DFE55200EE1DF00A0E13
:10506000E80403E3E5CFEDFFFBD700EE13F0140EE9
:10507000E80403E3E5CFEDFFFBD7E5CFFBFFE5CF8A
:10508000FAFFE5CFF4FFE5CFF3FFE5CFF5FFE5CF7E
:10509000F7FFE5CFF6FFE5CFEAFFE5CFE9FFE5CF84
:1050A000DAFF1100DACFE4FFE2CFDAFFE9CFE4FF65
:1050B000EACFE4FFF6CFE4FFF7CFE4FFF5CFE4FF5C
:1050C000F3CFE4FFF4CFE4FFFACFE4FFFBCFE4FF3C
:1050D00000EE00F0140EE80403E3EECFE4FFFBD78C
:1050E00000EE14F00A0EE80403E3EECFE4FFFBD772
:1050F000E65207D05FC3FBFF5EC3FAFF03015D51B9
:10510000F96EF8DFE55200EE1DF00A0EE80403E345
:10511000E5CFEDFFFBD700EE13F0140EE80403E338
:10512000E5CFEDFFFBD7E5CFFBFFE5CFFAFFE5CFFE
:10513000F4FFE5CFF3FFE5CFF5FFE5CFF7FFE5CFD0
:10514000F6FFE5CFEAFFE5CFE9FFE5CFDAFF110093
:10515000D9CFE6FFE1CFD9FF090EE126070EDB6AC2
:10516000FB0EDBCFE9FFFC0EDBCFEAFF050EEE18EE
:1051700001E1ED5001E010D1010EE76EFD0EDBCF35
:10518000E9FFFE0EDBCFEAFFE750E926000EEA2238
:10519000EF50000EF350DE6EDD6A020EE76EFD0E7C
:1051A000DBCFE9FFFE0EDBCFEAFFE750E926000E7A
:1051B000EA22EF50DF12DF2A010E01E3DB2A030EA1
:1051C000E76EFD0EDBCFE9FFFE0EDBCFEAFFE75017
:1051D000E926000EEA22EF50000EF350E66ED95099
:1051E000020FE96EDACFEAFFE552E750EE6EED6AA4
:1051F000040EE76EFD0EDBCFE9FFFE0EDBCFEAFF0C
:10520000E750E926000EEA22EF50146E156AD950D5
:10521000020FE96EDACFEAFF1450EE121550ED12CC
:10522000020EDBCF14F0030EDBCF15F0010E145C81
:10523000000E155801E2AAD0020EDBCF16F0030EC5
:10524000DBCF17F0D00E165C070E175801E39ED087
:10525000FD0EDBCF08F0FE0EDBCF09F0050E08C017
:10526000DBFF060E09C0DBFFFB0EDBCFE9FFFC0E08
:10527000DBCFEAFFEE6AED6A050EDBCFE9FFDB2A42
:10528000060EDBCFEAFF01E3DB2A020EEF6EFB0E18
:10529000DBCFE9FFFC0EDBCFEAFFEE2A000EED22AA
:1052A000020EDB50070B15E0020EDBCF14F0030EED
:1052B000DBCF15F00F0B05E0D89015321432E8065D
:1052C000FBE1010E1426000E1522040E14C0DBFFB4
:1052D00012D0080E146E156A020EDBCF08F0030E12
:1052E000DBCF09F014C00DF015C00EF024EC34F043
:1052F000040E08C0DBFF050EDBCFE9FFDB2A060E3C
:10530000DBCFEAFF01E3DB2A040EDBCFEFFFFB0E6E
:10531000DBCFE9FFFC0EDBCFEAFFEE2A000EED2229
:10532000020EDBCFE6FF030EDBCFE6FFDECFE6FFAC
:10533000DDCFE6FF050EDBCFE6FF060EDBCFE6FF97
:10534000AFEC18F0146E060EE15E1450E76E080E16
:10535000E7CFDBFFDB500BE0080EDBCFE6FF92EC84
:1053600025F0E552E76E070EE7CFDBFF0ED0040E07
:10537000DB50146E156AFB0EDBCFE9FFFC0EDBCFB2
:10538000EAFF1450EE261550ED2205D0030EF36E01
:10539000070EF3CFDBFF05D0030EF36E070EF3CF3E
:1053A000DBFF070EDB50146E090EE15C03E200D058
:1053B000E16AE552E16E1450E552E7CFD9FF1200E1
:1053C000D9CFE6FFE1CFD9FF200EE126030EDB6A3D
:1053D000040EDB6AD950050FE96EDACFEAFFEE6AF8
:1053E000EE6AEE6AEE6AEE6AD9500A0FE96EDACF1B
:1053F000EAFF200EEE6E200EEE6E200EEE6E200EF8
:10540000EE6E200EEE6E200EEE6EEE6AD950110F8B
:10541000E96EDACFEAFF490EEE6E440EEE6E450EEF
:10542000EE6E4F0EEE6E4E0EEE6E490EEE6E430EAB
:10543000EE6E530EEE6E310EEE6E200EEE6EEE6AD6
:105440000DEC34F068EC34F0B7EC00F0B3EC11F094
:10545000E66AE66A4B0EE66EE66AE66AE66A010E00
:10546000E66EE66A54EC1EF0146E080EE15E14500F
:1054700002EC20F0D5EC16F0000EE66EE66AEF0EB8
:10548000E66ED80EE66E22EC2EF0E552E552E552BD
:10549000E5522E0EE66E180EE66E670EE66EC50E2F
:1054A000E66E45EC2EF0E552E552E552E55215EC7C
:1054B00000F0E66A26EC07F0E552040EDB6A060E01
:1054C000F36E050EF3CFDBFFD9500A0FE66E000E28
:1054D000DA20E66EF0EC31F0E552E552080EF3CF3B
:1054E000DBFFD9500A0F146EDACF15F0060E14C088
:1054F000DBFF070E15C0DBFF090EDB6AD950040F76
:10550000E66E000EDA20E66EE66AEAEC01F0E5529D
:10551000E552E552080EE66E1F0EE66E49EC33F0DA
:10552000E552E552010EF36E1C0EF3CFDBFF1D0EAC
:10553000DB6A1C0EDBCF14F0DB061D0EDBCF15F093
:1055400001E2DB061450151006E00A0EE66E3AEC96
:1055500034F0E552EED70A0EE66E1E0EE66E49EC0A
:1055600033F0E552E552010EF36E1E0EF3CFDBFF72
:105570001F0EDB6A1E0EDBCF14F0DB061F0EDBCF27
:1055800015F001E2DB061450151006E00A0EE66E77
:105590003AEC34F0E552EED7F40E0301E05D010E73
:1055A000E159000EE259000EE35907E36BEC34F0C9
:1055B0000301E06BE16BE26BE36B03011E0EE85D40
:1055C000000EE95905E347EC08F00301E86BE96BCD
:1055D00043EC20F003010A0EE45D000EE55905E3FB
:1055E0000301E46BE56B030EDB2A020EF36E030E80
:1055F000DBCFF4FFF350F45C04E328EC17F0030E68
:10560000DB6A0400C9D7200EE15C02E2E16AE552E0
:0A561000E16EE552E7CFD9FF12006A
:06561A00D9CFE6FFE1CF4D
:10562000D9FF0A0EE126060EDB6AFB0EDBCFE9FF8F
:10563000FC0EDBCFEAFF050EEE1801E1ED5001E0B4
:1056400004D1010EE76EFD0EDBCFE9FFFE0EDBCFCE
:10565000EAFFE750E926000EEA22EF50DE6EDD6A2F
:10566000D9CFE9FFDACFEAFFEE50ED6EEF6A020E16
:10567000E76EFD0EDBCFE9FFFE0EDBCFEAFFE75062
:10568000E926000EEA22EF50DF12DF2A010E01E3C5
:10569000DB2A030EE76EFD0EDBCFE9FFFE0EDBCF4C
:1056A000EAFFE750E926000EEA22EF50E66ED950F5
:1056B000020FE96EDACFEAFFE552E750EE6EED6ACF
:1056C000D950020FE96EDACFEAFFEE50ED6EEF6AC5
:1056D000040EE76EFD0EDBCFE9FFFE0EDBCFEAFF27
:1056E000E750E926000EEA22EF50146E156AD950F1
:1056F000020FE96EDACFEAFF1450EE121550ED12E8
:10570000020EDBCF14F0030EDBCF15F0010E145C9C
:10571000000E155801E293D0020EDBCF16F0030EF7
:10572000DBCF17F07D0E165C000E175801E387D013
:10573000FD0EDBCF08F0FE0EDBCF09F0040E08C033
:10574000DBFF050E09C0DBFFFB0EDBCFE9FFFC0E24
:10575000DBCFEAFFEE6AED6A040EDBCFE9FFDB2A5E
:10576000050EDBCFEAFF01E3DB2A040EEF6EFB0E32
:10577000DBCFE9FFFC0EDBCFEAFFEE2A000EED22C5
:10578000020E086E096ADBCF0DF0030EDBCF0EF0C0
:1057900068EC33F00650E66E040EDBCFE9FFDB2A3F
:1057A000050EDBCFEAFF01E3DB2AE552E750EF6E9F
:1057B000FB0EDBCFE9FFFC0EDBCFEAFFEE2A000E8B
:1057C000ED22020EDBCFE6FF030EDBCFE6FFDECFDE
:1057D000E6FFDDCFE6FF040EDBCFE6FF050EDBCFF5
:1057E000E6FFE7EC17F0146E060EE15E1450E76E6C
:1057F000070EE7CFDBFFDB500BE0070EDBCFE6FF4A
:1058000092EC25F0E552E76E060EE7CFDBFF16D0EF
:10581000020EDBCF14F0030EDBCF15F0010ED89093
:1058200014361536E806FBE1FB0EDBCFE9FFFC0E74
:10583000DBCFEAFF1450EE261550ED2205D0030E03
:10584000F36E060EF3CFDBFF05D0030EF36E060EEC
:10585000F3CFDBFF060EDB50146E0A0EE15C03E2B1
:1058600000D0E16AE552E16E1450E552E7CFD9FF6E
:02587000120024
:0E587200C76AC78E590EC86E280EC66EC56A6C
:105880009E96A19694869488120094969498828805
:105890008286050EE66E75EC34F0E5528298050EB0
:1058A000E66E75EC34F0E5528296050EE66E75EC08
:1058B00034F0E5521200949694988298050EE66EA4
:1058C00075EC34F0E5528286050EE66E75EC34F028
:1058D000E55282881200D9CFE6FFE1CFD9FFE65228
:1058E00094969488DF6ADF500A080EE3050EE66E90
:1058F00075EC34F0E5528286050EE66E75EC34F0F8
:10590000E5528296DF2AEFD7E552E552E7CFD9FF7D
:105910001200D9CFE6FFE1CFD9FFE65294969498D2
:10592000DF6A080EDF5C25E2FE0EDB50800B02E032
:10593000010E01D0000EE8B08288E8A08298030E24
:10594000E66E75EC34F0E5528286060EE66E75EC76
:1059500034F0E5528296020EE66E75EC34F0E552B4
:10596000FE0EDBCFF3FFF39EF346F3CFDBFFDF2A20
:10597000D8D79488020EE66E75EC34F0E552828634
:10598000060EE66E75EC34F0E5528296060EE66E73
:1059900075EC34F0E552E552E552E7CFD9FF12003D
:1059A000D9CFE6FFE1CFD9FF020EE126DF6A949658
:1059B00094989488010EDB6A080EF36E010EDBCF1B
:1059C000F4FFF350F45C17E28286060EE66E75EC87
:1059D00034F0E552DF9EDF468250100B01E0010EED
:1059E000DF10DF6E8296060EE66E75EC34F0E5523F
:1059F000010EDB2AE1D79498FE0EDB0402E18298C7
:105A000001D08288020EE66E75EC34F0E552828693
:105A1000060EE66E75EC34F0E5528296060EE66EE2
:105A200075EC34F0E552DF50146E020EE15C03E2D7
:105A300000D0E16AE552E16E1450E552E7CFD9FF9C
:105A40001200D9CFE6FFE1CFD9FFE6521EDFFE0EEE
:105A5000DBCFE6FF5EDFE552FD0EDBCFE6FF59DF71
:105A6000E55213DFFE0EDB28E66E53DFE552E66AF1
:105A700097DFE552DF6E1FDFDF5000D0E552E552C1
:105A8000E7CFD9FF1200D9CFE6FFE1CFD9FFFDDE86
:105A9000FE0EDBCFE6FF3DDFE552FD0EDBCFE6FF7E
:105AA00038DFE552FC0EDBCFE6FF33DFE55203DFE4
