:020000040000FA
:06000000A4EF16F012004F
:020006001200E6
:08000800F2A402D0A3EF13F0F3
:100010009EA002D00CEF14F01200D08EF28E1200CF
:100020000500C62D0000C300000001000000B22D35
:1000300000008000000014000000B12D0000C2008C
:10004000000001000000A62D0000A60000000B002B
:0E0050000000942D000094000000120000003B
:02005E00D9CFF8
:10006000E6FFE1CFD9FFE652FE0EDBCFE6FF010E41
:10007000F36EFD0EDB5004E0D890F336E806FCE1A9
:10008000F350E552E71402E0010E01D0000EDF6EDE
:10009000DF5000D0E552E552E7CFD9FF1200D9CFAB
:1000A000E6FFE1CFD9FF010EF36EFC0EDB5004E05A
:1000B000D890F336E806FCE1F350006EFD0EDBCF7E
:1000C000E9FFFE0EDBCFEAFF0050EF12E552E7CF6B
:1000D000D9FF1200D9CFE6FFE1CFD9FF010EF36EB1
:1000E000FC0EDB5004E0D890F336E806FCE1F35058
:1000F000E81C006EFD0EDBCFE9FFFE0EDBCFEAFF52
:100100000050EF16E552E7CFD9FF1200D9CFE6FF36
:10011000E1CFD9FF030EE126DF6A010EDF5C01E3C8
:10012000C3D1DF28E66EDF50E96EEA6A550EEA02B7
:10013000F3CFEAFF030EE902F350EA26550EE90277
:10014000F3CFE9FFF450EA26000EE926030EEA2277
:10015000E552E750EF6EDF50E96EEA6A550EEA02AB
:10016000F3CFEAFF030EE902F350EA26550EE90247
:10017000F3CFE9FFF450EA26000EE926030EEA2247
:10018000EE52EF6ADF50E96EEA6A550EEA02F3CFEB
:10019000EAFF030EE902F350EA26550EE902F3CF17
:1001A000E9FFF450EA26000EE926030EEA22030EC8
:1001B000E926000EEA22EE6AED6ADF50E96EEA6A8D
:1001C000550EEA02F3CFEAFF030EE902F350EA26E6
:1001D000550EE902F3CFE9FFF450EA26000EE926B6
:1001E000030EEA22050EE926000EEA22EF6ADF502E
:1001F000E96EEA6A550EEA02F3CFEAFF030EE9025E
:10020000F350EA26550EE902F3CFE9FFF450EA264F
:10021000000EE926030EEA22060EE926000EEA2267
:10022000EF6ADF50E96EEA6A550EEA02F3CFEAFFA1
:10023000030EE902F350EA26550EE902F3CFE9FF77
:10024000F450EA26000EE926030EEA22090EE926FA
:10025000000EEA22EF6ADF50E96EEA6A550EEA0202
:10026000F3CFEAFF030EE902F350EA26550EE90246
:10027000F3CFE9FFF450EA26000EE926030EEA2246
:100280000A0EE926000EEA22EF6ADF50E96EEA6AFA
:10029000550EEA02F3CFEAFF030EE902F350EA2615
:1002A000550EE902F3CFE9FFF450EA26000EE926E5
:1002B000030EEA22070EE926000EEA22EF6ADF505B
:1002C000E96EEA6A550EEA02F3CFEAFF030EE9028D
:1002D000F350EA26550EE902F3CFE9FFF450EA267F
:1002E000000EE926030EEA220B0EE926000EEA2292
:1002F000EF6ADF50E96EEA6A550EEA02F3CFEAFFD1
:10030000030EE902F350EA26550EE902F3CFE9FFA6
:10031000F450EA26000EE926030EEA220C0EE92626
:10032000000EEA22EF6ADF50E96EEA6A550EEA0231
:10033000F3CFEAFF030EE902F350EA26550EE90275
:10034000F3CFE9FFF450EA26000EE926030EEA2275
:10035000080EE926000EEA22EF6ADF50E96EEA6A2B
:10036000550EEA02F3CFEAFF030EE902F350EA2644
:10037000550EE902F3CFE9FFF450EA26000EE92614
:10038000030EEA22020EE926000EEA22EF6ADE528E
:10039000180EDD6E010EDBCFE6FFE66AE66ADF507F
:1003A000E96EEA6A550EEA02F3CFEAFF030EE902AC
:1003B000F350EA26550EE902F3CFE9FFF450EA269E
:1003C000000EE926030EEA223D0EE926020EEA227D
:1003D000E9CF00F0EACF01F000C0E6FF01C0E6FF80
:1003E000CBEC15F0026E050EE15E0250010EDBCF84
:1003F000E6FFE66AE66ADF50E96EEA6A550EEA024F
:10040000F3CFEAFF030EE902F350EA26550EE902A4
:10041000F3CFE9FFF450EA26000EE926030EEA22A4
:100420000D0EE926000EEA22E9CF00F0EACF01F036
:1004300000C0E6FF01C0E6FFCBEC15F0026E050E32
:10044000E15E0250010EDBCFE6FFE66AE66ADF50AE
:10045000E96EEA6A550EEA02F3CFEAFF030EE902FB
:10046000F350EA26550EE902F3CFE9FFF450EA26ED
:10047000000EE926030EEA220D0EE926000EEA22FE
:10048000E9CF00F0EACF01F0180E0026010E01229C
:1004900000C0E6FF01C0E6FFCBEC15F0026E050ED2
:1004A000E15E0250DF2A39D6030EE15C02E2E16A26
:1004B000E552E16EE552E7CFD9FF1200D9CFE6FF52
:1004C000E1CFD9FF070EE126010EF36EFE0EDBCF62
:1004D000F4FFF350F45C18E2FC0EDBCFE9FFFD0EF5
:1004E000DBCFEAFFEFCF00F0280E005C0DE2FC0E40
:1004F000DBCFE9FFFD0EDBCFEAFF020EE926000E9F
:10050000EA22EE50ED1003E1000E51EF07F0FE0E6F
:10051000DB50E96EEA6A550EEA02F3CFEAFF030EFA
:10052000E902F350EA26550EE902F3CFE9FFF45051
:10053000EA26000EE926030EEA22EE52E9CF00F089
:10054000EACF01F0050E00C0DBFF060E01C0DBFFA5
:10055000FC0EDBCFE9FFFD0EDBCFEAFFEECF00F0B4
:10056000EECF01F0EECF02F0EECF03F0EECF04F0CD
:10057000EFCF05F0050EDBCFE9FF060EDBCFEAFF7C
:1005800000C0EEFF01C0EEFF02C0EEFF03C0EEFFB1
:1005900004C0EEFF05C0EEFFFE0EDB50E96EEA6A16
:1005A000550EEA02F3CFEAFF030EE902F350EA2602
:1005B000550EE902F3CFE9FFF450EA26000EE926D2
:1005C000030EEA22060EE926000EEA22EF50E66E3E
:1005D000FE0EDB50E96EEA6A550EEA02F3CFEAFF3F
:1005E000030EE902F350EA26550EE902F3CFE9FFC4
:1005F000F450EA26000EE926030EEA22070EE92649
:10060000000EEA22E552E750EF6E180EDF6EDFCFE4
:10061000E6FFE66AE66AFE0EDB50E96EEA6A550E10
:10062000EA02F3CFEAFF030EE902F350EA26550E81
:10063000E902F3CFE9FFF450EA26000EE926030EA3
:10064000EA223D0EE926020EEA22E9CF00F0EACFC7
:1006500001F000C0E6FF01C0E6FFCBEC15F0026E32
:10066000050EE15E0250DFCFE6FFE66AE66AFE0EA7
:10067000DB50E96EEA6A550EEA02F3CFEAFF030E99
:10068000E902F350EA26550EE902F3CFE9FFF450F0
:10069000EA26000EE926030EEA220D0EE926000ED8
:1006A000EA22E9CF00F0EACF01F000C0E6FF01C086
:1006B000E6FFCBEC15F0026E050EE15E0250DFCFD7
:1006C000E6FFE66AE66AFE0EDB50E96EEA6A550E60
:1006D000EA02F3CFEAFF030EE902F350EA26550ED1
:1006E000E902F3CFE9FFF450EA26000EE926030EF3
:1006F000EA220D0EE926000EEA22E9CF00F0EACF49
:1007000001F0180E0026010E012200C0E6FF01C014
:10071000E6FFCBEC15F0026E050EE15E0250FE0E18
:10072000DB50E96EEA6A550EEA02F3CFEAFF030EE8
:10073000E902F350EA26550EE902F3CFE9FFF4503F
:10074000EA26000EE926030EEA22060EE926000E2E
:10075000EA22EF5001E0D2D1DF6AFE0EDB50E96EF3
:10076000EA6A550EEA02F3CFEAFF030EE902F350FC
:10077000EA26550EE902F3CFE9FFF450EA26000E0F
:10078000E926030EEA22020EE926000EEA22EF50C5
:10079000DF5C01E3B2D1FE0EDB50E96EEA6A550E72
:1007A000EA02F3CFEAFF030EE902F350EA26550E00
:1007B000E902F3CFE9FFF450EA26000EE926030E22
:1007C000EA22080EE926000EEA22EF50EF2A006E18
:1007D000016AFE0EDB50E96EEA6A550EEA02F3CFBB
:1007E000EAFF030EE902F350EA26550EE902F3CFC1
:1007F000E9FFF450EA26000EE926030EEA22030E72
:10080000E926000EEA220050EE24E76E0150EE20A9
:10081000EA6EE7CFE9FFEF50E00FE76E040EE7CF97
:10082000DBFFFE0EDB50E96EEA6A550EEA02F3CFFB
:10083000EAFF030EE902F350EA26550EE902F3CF70
:10084000E9FFF450EA26000EE926030EEA22080E1C
:10085000E926000EEA22EFCF00F0FE0EDB50E96E33
:10086000EA6A550EEA02F3CFEAFF030EE902F350FB
:10087000EA26550EE902F3CFE9FFF450EA26000E0E
:10088000E926030EEA22050EE926000EEA22EF50C1
:10089000005C1BE3FE0EDB50E96EEA6A550EEA02CD
:1008A000F3CFEAFF030EE902F350EA26550EE90200
:1008B000F3CFE9FFF450EA26000EE926030EEA2200
:1008C000080EE926000EEA22EF6A010EDB6A070E27
:1008D000F36E010EDBCFF4FFF350F45C01E30BD1B8
:1008E000040EDB50080DF3CF04F0F4CF05F08E0EAC
:1008F0000426230E0522010EDB500F010424F66EA0
:10090000000E0520F76E0800F550E66EFE0EDB5077
:10091000E96EEA6A550EEA02F3CFEAFF030EE90236
:10092000F350EA26550EE902F3CFE9FFF450EA2628
:10093000000EE926030EEA223D0EE926020EEA2207
:10094000E9CF02F0EACF03F0010EDB50280D025090
:10095000F324006E0350F420016EDF500F010024D9
:10096000E96E000E0120EA6EE552E750EF6EFE0ED2
:10097000DB50E96EEA6A550EEA02F3CFEAFF030E96
:10098000E902F350EA26550EE902F3CFE9FFF450ED
:10099000EA26000EE926030EEA223D0EE926020EA3
:1009A000EA22E9CF06F0EACF07F0010EDB50280D6E
:1009B0000650F324046E0750F420056EDF50042423
:1009C000E96E000E0520EA6EEF50E66EFE0EDB507B
:1009D000E96EEA6A550EEA02F3CFEAFF030EE90276
:1009E000F350EA26550EE902F3CFE9FFF450EA2668
:1009F000000EE926030EEA220D0EE926000EEA2279
:100A0000E9CF02F0EACF03F0010EDB50280D0250CF
:100A1000F324006E0350F420016EDF500024E96ED1
:100A2000000E0120EA6EE552E750EF6EFE0EDB503D
:100A3000E96EEA6A550EEA02F3CFEAFF030EE90215
:100A4000F350EA26550EE902F3CFE9FFF450EA2607
:100A5000000EE926030EEA223D0EE926020EEA22E6
:100A6000E9CF06F0EACF07F0010EDB50280D065063
:100A7000F324046E0750F420056EDF500424E96E61
:100A8000000E0520EA6EEF50E66EFE0EDB50E96EBA
:100A9000EA6A550EEA02F3CFEAFF030EE902F350C9
:100AA000EA26550EE902F3CFE9FFF450EA26000EDC
:100AB000E926030EEA220D0EE926000EEA22E9CF0E
:100AC00002F0EACF03F0180E0226010E0322DB50DB
:100AD000280D0250F324006E0350F420016EDF5005
:100AE0000024E96E000E0120EA6EE552E750EF6E39
:100AF000010EDB2AECD6DF2A30D6D1D1DF6AFE0E1A
:100B0000DB50E96EEA6A550EEA02F3CFEAFF030E04
:100B1000E902F350EA26550EE902F3CFE9FFF4505B
:100B2000EA26000EE926030EEA22020EE926000E4E
:100B3000EA22EF50DF5C01E3B2D1FE0EDB50E96E3A
:100B4000EA6A550EEA02F3CFEAFF030EE902F35018
:100B5000EA26550EE902F3CFE9FFF450EA26000E2B
:100B6000E926030EEA22080EE926000EEA22EF50DB
:100B7000EF2A006E016AFE0EDB50E96EEA6A550E3E
:100B8000EA02F3CFEAFF030EE902F350EA26550E1C
:100B9000E902F3CFE9FFF450EA26000EE926030E3E
:100BA000EA22030EE926000EEA220050EE24E76E48
:100BB0000150EE20EA6EE7CFE9FFEF50E00FE76E5D
:100BC000040EE7CFDBFFFE0EDB50E96EEA6A550E3E
:100BD000EA02F3CFEAFF030EE902F350EA26550ECC
:100BE000E902F3CFE9FFF450EA26000EE926030EEE
:100BF000EA22080EE926000EEA22EFCF00F0FE0EF0
:100C0000DB50E96EEA6A550EEA02F3CFEAFF030E03
:100C1000E902F350EA26550EE902F3CFE9FFF4505A
:100C2000EA26000EE926030EEA22050EE926000E4A
:100C3000EA22EF50005C1BE3FE0EDB50E96EEA6A2D
:100C4000550EEA02F3CFEAFF030EE902F350EA265B
:100C5000550EE902F3CFE9FFF450EA26000EE9262B
:100C6000030EEA22080EE926000EEA22EF6A010EC0
:100C7000DB6A070EF36E010EDBCFF4FFF350F45C7A
:100C800001E30BD1040EDB50080DF3CF04F0F4CFD9
:100C900005F08E0E0426230E0522010EDB500F01F7
:100CA0000424F66E000E0520F76E0800F550E66E7F
:100CB000FE0EDB50E96EEA6A550EEA02F3CFEAFF58
:100CC000030EE902F350EA26550EE902F3CFE9FFDD
:100CD000F450EA26000EE926030EEA223D0EE9262C
:100CE000020EEA22E9CF02F0EACF03F0010EDB5058
:100CF000280D0250F324006E0350F420016EDF50E3
:100D00000F010024E96E000E0120EA6EE552E75063
:100D1000EF6EFE0EDB50E96EEA6A550EEA02F3CF83
:100D2000EAFF030EE902F350EA26550EE902F3CF7B
:100D3000E9FFF450EA26000EE926030EEA223D0EF2
:100D4000E926020EEA22E9CF06F0EACF07F0010E0B
:100D5000DB50280D0650F324046E0750F420056E76
:100D6000DF500424E96E000E0520EA6EEF50E66EB7
:100D7000FE0EDB50E96EEA6A550EEA02F3CFEAFF97
:100D8000030EE902F350EA26550EE902F3CFE9FF1C
:100D9000F450EA26000EE926030EEA220D0EE9269B
:100DA000000EEA22E9CF02F0EACF03F0010EDB5099
:100DB000280D0250F324006E0350F420016EDF5022
:100DC0000024E96E000E0120EA6EE552E750EF6E56
:100DD000FE0EDB50E96EEA6A550EEA02F3CFEAFF37
:100DE000030EE902F350EA26550EE902F3CFE9FFBC
:100DF000F450EA26000EE926030EEA223D0EE9260B
:100E0000020EEA22E9CF06F0EACF07F0010EDB502E
:100E1000280D0650F324046E0750F420056EDF50B1
:100E20000424E96E000E0520EA6EEF50E66EFE0E19
:100E3000DB50E96EEA6A550EEA02F3CFEAFF030ED1
:100E4000E902F350EA26550EE902F3CFE9FFF45028
:100E5000EA26000EE926030EEA220D0EE926000E10
:100E6000EA22E9CF02F0EACF03F0180E0226010EC3
:100E70000322DB50280D0250F324006E0350F420AF
:100E8000016EDF500024E96E000E0120EA6EE5528B
:100E9000E750EF6E010EDB2AECD6DF2A30D6010ECA
:100EA00000D0006E070EE15C02E2E16AE552E16EFD
:100EB0000050E552E7CFD9FF1200D9CFE6FFE1CFCE
:100EC000D9FFFE0EDB50E96EEA6A550EEA02F3CF57
:100ED000EAFF030EE902F350EA26550EE902F3CFCA
:100EE000E9FFF450EA26000EE926030EEA22060E78
:100EF000E926000EEA22FD0EDBCFEFFFFE0EDB50EF
:100F0000E96EEA6A550EEA02F3CFEAFF030EE90240
:100F1000F350EA26550EE902F3CFE9FFF450EA2632
:100F2000000EE926030EEA22070EE926000EEA2249
:100F3000FD0EDBCFEFFFE552E7CFD9FF1200D9CF8F
:100F4000E6FFE1CFD9FF020EE126FD0EDB50006E79
:100F5000016AFE0EDB50E96EEA6A550EEA02F3CF33
:100F6000EAFF030EE902F350EA26550EE902F3CF39
:100F7000E9FFF450EA26000EE926030EEA22030EEA
:100F8000E926000EEA220050EE24E76E0150EE2022
:100F9000EA6EE7CFE9FFEF50E00FE76E010EE7CF13
:100FA000DBFFDF6A070EDF5C01E3D2D0010EDB500E
:100FB000080DF3CF04F0F4CF05F08E0E0426230EB7
:100FC0000522DF500F010424F66E000E0520F76E97
:100FD0000800F550E66EFE0EDB50E96EEA6A550E2B
:100FE000EA02F3CFEAFF030EE902F350EA26550EB8
:100FF000E902F3CFE9FFF450EA26000EE926030EDA
:10100000EA223D0EE926020EEA22E9CF02F0EACFFB
:1010100003F0DF50280D0250F324006E0350F4203B
:10102000016EFD0EDB500F010024E96E000E012061
:10103000EA6EE552E750EF6EDF50280DF3CF04F073
:10104000F4CF05F03D0E0426050E0522FD0EDB5003
:101050000424E96E000E0520EA6EEF50E66EFE0EE7
:10106000DB50E96EEA6A550EEA02F3CFEAFF030E9F
:10107000E902F350EA26550EE902F3CFE9FFF450F6
:10108000EA26000EE926030EEA220D0EE926000EDE
:10109000EA22E9CF02F0EACF03F0DF50280D025038
:1010A000F324006E0350F420016EFD0EDB5000248B
:1010B000E96E000E0120EA6EE552E750EF6EDF5058
:1010C000280DF3CF04F0F4CF05F03D0E0426050EF5
:1010D0000522FD0EDB500424E96E000E0520EA6EA9
:1010E000EF50E66EFE0EDB50E96EEA6A550EEA023C
:1010F000F3CFEAFF030EE902F350EA26550EE902A8
:10110000F3CFE9FFF450EA26000EE926030EEA22A7
:101110000D0EE926000EEA22E9CF02F0EACF03F035
:10112000180E0226010E0322DF50280D0250F32470
:10113000006E0350F420016EFD0EDB500024E96EBA
:10114000000E0120EA6EE552E750EF6EDF2A2AD743
:10115000020EE15C02E2E16AE552E16EE552E7CFA0
:10116000D9FF1200D9CFE6FFE1CFD9FFE652FE0E3C
:10117000DB50E96EEA6A550EEA02F3CFEAFF030E8E
:10118000E902F350EA26550EE902F3CFE9FFF450E5
:10119000EA26000EE926030EEA22EE52EF6AFE0E60
:1011A000DB50E96EEA6A550EEA02F3CFEAFF030E5E
:1011B000E902F350EA26550EE902F3CFE9FFF450B5
:1011C000EA26000EE926030EEA22030EE926000EA7
:1011D000EA22EE6AED6AFE0EDB50E96EEA6A550E0F
:1011E000EA02F3CFEAFF030EE902F350EA26550EB6
:1011F000E902F3CFE9FFF450EA26000EE926030ED8
:10120000EA22050EE926000EEA22EF6AFE0EDB5006
:10121000E96EEA6A550EEA02F3CFEAFF030EE9022D
:10122000F350EA26550EE902F3CFE9FFF450EA261F
:10123000000EE926030EEA22060EE926000EEA2237
:10124000EF6AFE0EDB50E96EEA6A550EEA02F3CF52
:10125000EAFF030EE902F350EA26550EE902F3CF46
:10126000E9FFF450EA26000EE926030EEA22090EF1
:10127000E926000EEA22EF6AFE0EDB50E96EEA6A0A
:10128000550EEA02F3CFEAFF030EE902F350EA2615
:10129000550EE902F3CFE9FFF450EA26000EE926E5
:1012A000030EEA220A0EE926000EEA22EF6AFE0E7B
:1012B000DB50E96EEA6A550EEA02F3CFEAFF030E4D
:1012C000E902F350EA26550EE902F3CFE9FFF450A4
:1012D000EA26000EE926030EEA22070EE926000E92
:1012E000EA22EF6AFE0EDB50E96EEA6A550EEA0268
:1012F000F3CFEAFF030EE902F350EA26550EE902A6
:10130000F3CFE9FFF450EA26000EE926030EEA22A5
:101310000B0EE926000EEA22EF6AFE0EDB50E96EA4
:10132000EA6A550EEA02F3CFEAFF030EE902F35030
:10133000EA26550EE902F3CFE9FFF450EA26000E43
:10134000E926030EEA220C0EE926000EEA22EF6AD5
:10135000FE0EDB50E96EEA6A550EEA02F3CFEAFFB1
:10136000030EE902F350EA26550EE902F3CFE9FF36
:10137000F450EA26000EE926030EEA22080EE926BA
:10138000000EEA22EF6AFE0EDB50E96EEA6A550EA5
:10139000EA02F3CFEAFF030EE902F350EA26550E04
:1013A000E902F3CFE9FFF450EA26000EE926030E26
:1013B000EA22020EE926000EEA22EF6A180EDF6E1C
:1013C000DFCFE6FFE66AE66AFE0EDB50E96EEA6A08
:1013D000550EEA02F3CFEAFF030EE902F350EA26C4
:1013E000550EE902F3CFE9FFF450EA26000EE92694
:1013F000030EEA223D0EE926020EEA22E9CF00F0B2
:10140000EACF01F000C0E6FF01C0E6FFCBEC15F02B
:10141000026E050EE15E0250DFCFE6FFE66AE66A85
:10142000FE0EDB50E96EEA6A550EEA02F3CFEAFFE0
:10143000030EE902F350EA26550EE902F3CFE9FF65
:10144000F450EA26000EE926030EEA220D0EE926E4
:10145000000EEA22E9CF00F0EACF01F000C0E6FF7B
:1014600001C0E6FFCBEC15F0026E050EE15E025006
:10147000DFCFE6FFE66AE66AFE0EDB50E96EEA6A57
:10148000550EEA02F3CFEAFF030EE902F350EA2613
:10149000550EE902F3CFE9FFF450EA26000EE926E3
:1014A000030EEA220D0EE926000EEA22E9CF00F033
:1014B000EACF01F0180E0026010E012200C0E6FF5F
:1014C00001C0E6FFCBEC15F0026E050EE15E0250A6
:1014D000E552E552E7CFD9FF1200D9CFE6FFE1CFC1
:1014E000D9FF050EE126DF6A010EDF5C02E3C5EFDE
:1014F0000FF0DF50E96EEA6A550EEA02F3CFEAFF19
:10150000030EE902F350EA26550EE902F3CFE9FF94
:10151000F450EA26000EE926030EEA22060EE9261A
:10152000000EEA22EF5038E0DF50E96EEA6A550E0D
:10153000EA02F3CFEAFF030EE902F350EA26550E62
:10154000E902F3CFE9FFF450EA26000EE926030E84
:10155000EA22070EE926000EEA22EF06DF50E96EC6
:10156000EA6A550EEA02F3CFEAFF030EE902F350EE
:10157000EA26550EE902F3CFE9FFF450EA26000E01
:10158000E926030EEA22070EE926000EEA22EF50B2
:10159000000802E2C2EF0FF0DF50E96EEA6A550E72
:1015A000EA02F3CFEAFF030EE902F350EA26550EF2
:1015B000E902F3CFE9FFF450EA26000EE926030E14
:1015C000EA22060EE926000EEA22EF50E66EDF5010
:1015D000E96EEA6A550EEA02F3CFEAFF030EE9026A
:1015E000F350EA26550EE902F3CFE9FFF450EA265C
:1015F000000EE926030EEA22070EE926000EEA2273
:10160000E552E750EF6E9D90DF50E96EEA6A550EA5
:10161000EA02F3CFEAFF030EE902F350EA26550E81
:10162000E902F3CFE9FFF450EA26000EE926030EA3
:10163000EA22090EE926000EEA22EF503BE1DF50D4
:10164000E96EEA6A550EEA02F3CFEAFF030EE902F9
:10165000F350EA26550EE902F3CFE9FFF450EA26EB
:10166000000EE926030EEA220C0EE926000EEA22FD
:10167000EF5002E1010E01D0000EE66EDF50E96E80
:10168000EA6A550EEA02F3CFEAFF030EE902F350CD
:10169000EA26550EE902F3CFE9FFF450EA26000EE0
:1016A000E926030EEA220B0EE926000EEA22E55295
:1016B000E750EF6EDF50E96EEA6A550EEA02F3CFAB
:1016C000EAFF030EE902F350EA26550EE902F3CFD2
:1016D000E9FFF450EA26000EE926030EEA22090E7D
:1016E000E926000EEA22EF0403E19D80C2EF0FF02D
:1016F0009D80DF50E96EEA6A550EEA02F3CFEAFFF9
:10170000030EE902F350EA26550EE902F3CFE9FF92
:10171000F450EA26000EE926030EEA22060EE92618
:10172000000EEA22EF5002E1A5EF0FF0010EDB6A96
:10173000070EF36E010EDBCFF4FFF350F45C01E310
:1017400046D3010EF36E020EF3CFDBFFDF50E96EDE
:10175000EA6A550EEA02F3CFEAFF030EE902F350FC
:10176000EA26550EE902F3CFE9FFF450EA26000E0F
:10177000E926030EEA22020EE926000EEA22EF50C5
:10178000F36E020EDBCFF4FFF350F45C01E36BD198
:10179000DF50E96EEA6A550EEA02F3CFEAFF030E64
:1017A000E902F350EA26550EE902F3CFE9FFF450BF
:1017B000EA26000EE926030EEA223D0EE926020E75
:1017C000EA22E9CF02F0EACF03F0010EDB50280D48
:1017D0000250F324006E0350F420016E020EDB046D
:1017E0000F010024E96E000E0120EA6EEF9EEF4625
:1017F000070EE66EDF50E96EEA6A550EEA02F3CF95
:10180000EAFF030EE902F350EA26550EE902F3CF90
:10181000E9FFF450EA26000EE926030EEA223D0E07
:10182000E926020EEA22E9CF02F0EACF03F0010E28
:10183000DB50280D0250F324006E0350F420016E9B
:10184000020EDB500024E96E000E0120EA6EEF501C
:10185000E66E2FEC00F0E552E55201083AE1020E87
:10186000E66EDF50E96EEA6A550EEA02F3CFEAFF50
:10187000030EE902F350EA26550EE902F3CFE9FF21
:10188000F450EA26000EE926030EEA223D0EE92670
:10189000020EEA22E9CF04F0EACF05F0010EDB5098
:1018A000280D0450F324026E0550F420036E020E3E
:1018B000DB0400010224006E000E0320016E00C054
:1018C000E6FF01C0E6FF4FEC00F0E552E552E552BD
:1018D00039D0020EE66EDF50E96EEA6A550EEA0272
:1018E000F3CFEAFF030EE902F350EA26550EE902B0
:1018F000F3CFE9FFF450EA26000EE926030EEA22B0
:101900003D0EE926020EEA22E9CF04F0EACF05F007
:10191000010EDB50280D0450F324026E0550F42014
:10192000036E020EDB0400010224006E000E032091
:10193000016E00C0E6FF01C0E6FF6AEC00F0E55270
:10194000E552E552DF50E96EEA6A550EEA02F3CF3E
:10195000EAFF030EE902F350EA26550EE902F3CF3F
:10196000E9FFF450EA26000EE926030EEA223D0EB6
:10197000E926020EEA22E9CF0AF0EACF0BF0010EC7
:10198000DB50280D0A50F324086E0B50F420096E2A
:10199000020EDB040F010824E96E000E0920EA6E36
:1019A000EF50E66EDF50E96EEA6A550EEA02F3CFB9
:1019B000EAFF030EE902F350EA26550EE902F3CFDF
:1019C000E9FFF450EA26000EE926030EEA220D0E86
:1019D000E926000EEA22E9CF04F0EACF05F0DF5055
:1019E000E96EEA6A550EEA02F3CFEAFF030EE90256
:1019F000F350EA26550EE902F3CFE9FFF450EA2648
:101A0000000EE926030EEA220B0EE926000EEA225A
:101A1000EF50066E076A180E0702F3CF07F0065064
:101A20000726180E0602F3CF06F0F45007260450DE
:101A30000624026E05500720036E010EDB50280DB0
:101A40000250F324006E0350F420016E020EDB04FA
:101A50000024E96E000E0120EA6EE552E750EF6EB9
:101A6000020EDB2A73D6DF50E96EEA6A550EEA02EF
:101A7000F3CFEAFF030EE902F350EA26550EE9021E
:101A8000F3CFE9FFF450EA26000EE926030EEA221E
:101A90003D0EE926020EEA22E9CF02F0EACF03F07A
:101AA000010EDB50280D0250F324006E0350F42089
:101AB000016E020EDB040F010024E96E000E01200E
:101AC000EA6EEF9EEF46DF50E96EEA6A550EEA02D3
:101AD000F3CFEAFF030EE902F350EA26550EE902BE
:101AE000F3CFE9FFF450EA26000EE926030EEA22BE
:101AF000080EE926000EEA22EF50006E016ADF5060
:101B0000E96EEA6A550EEA02F3CFEAFF030EE90234
:101B1000F350EA26550EE902F3CFE9FFF450EA2626
:101B2000000EE926030EEA22030EE926000EEA2241
:101B30000050EE24E76E0150EE20EA6EE7CFE9FF99
:101B4000EF50E00FE76E030EE7CFDBFFDB50080D31
:101B5000F3CF00F0F4CF01F08E0E0026230E012209
:101B6000010EDB500F010024F66E000E0120F76E0F
:101B70000800040EF5CFDBFF070E006EDF50E96EA4
:101B8000EA6A550EEA02F3CFEAFF030EE902F350C8
:101B9000EA26550EE902F3CFE9FFF450EA26000EDB
:101BA000E926030EEA220A0EE926000EEA22EF5089
:101BB000005CE66E040EDBCFE6FF2FEC00F0E55292
:101BC000E55201083AE1020EE66EDF50E96EEA6A7C
:101BD000550EEA02F3CFEAFF030EE902F350EA26BC
:101BE000550EE902F3CFE9FFF450EA26000EE9268C
:101BF000030EEA223D0EE926020EEA22E9CF04F0A6
:101C0000EACF05F0010EDB50280D0450F324026EDC
:101C10000550F420036E020EDB0400010224006E66
:101C2000000E0320016E00C0E6FF01C0E6FF4FEC8E
:101C300000F0E552E552E55239D0020EE66EDF5073
:101C4000E96EEA6A550EEA02F3CFEAFF030EE902F3
:101C5000F350EA26550EE902F3CFE9FFF450EA26E5
:101C6000000EE926030EEA223D0EE926020EEA22C4
:101C7000E9CF04F0EACF05F0010EDB50280D045047
:101C8000F324026E0550F420036E020EDB04000103
:101C90000224006E000E0320016E00C0E6FF01C0AA
:101CA000E6FF6AEC00F0E552E552E552DF50E96EDE
:101CB000EA6A550EEA02F3CFEAFF030EE902F35097
:101CC000EA26550EE902F3CFE9FFF450EA26000EAA
:101CD000E926030EEA223D0EE926020EEA22E9CFAA
:101CE0000AF0EACF0BF0010EDB50280D0A50F32466
:101CF000086E0B50F420096E020EDB040F0108245D
:101D0000E96E000E0920EA6EEF50E66EDF50E96ED4
:101D1000EA6A550EEA02F3CFEAFF030EE902F35036
:101D2000EA26550EE902F3CFE9FFF450EA26000E49
:101D3000E926030EEA220D0EE926000EEA22E9CF7B
:101D400004F0EACF05F0DF50E96EEA6A550EEA02C8
:101D5000F3CFEAFF030EE902F350EA26550EE9023B
:101D6000F3CFE9FFF450EA26000EE926030EEA223B
:101D70000B0EE926000EEA22EF50066E076A180ED7
:101D80000702F3CF07F006500726180E0602F3CF1E
:101D900006F0F450072604500624026E0550072072
:101DA000036E010EDB50280D0250F324006E035029
:101DB000F420016E020EDB040024E96E000E012007
:101DC000EA6EE552E750EF6E010EDB2AB1D4DF5028
:101DD000E96EEA6A550EEA02F3CFEAFF030EE90262
:101DE000F350EA26550EE902F3CFE9FFF450EA2654
:101DF000000EE926030EEA220A0EE926000EEA2268
:101E0000EF2ADF50E96EEA6A550EEA02F3CFEAFFE5
:101E1000030EE902F350EA26550EE902F3CFE9FF7B
:101E2000F450EA26000EE926030EEA220A0EE926FD
:101E3000000EEA22EFCF00F0060E005C01E285D032
:101E4000DF50E96EEA6A550EEA02F3CFEAFF030EAD
:101E5000E902F350EA26550EE902F3CFE9FFF45008
:101E6000EA26000EE926030EEA22080EE926000EF5
:101E7000EA22EF2ADF50E96EEA6A550EEA02F3CF52
:101E8000EAFF030EE902F350EA26550EE902F3CF0A
:101E9000E9FFF450EA26000EE926030EEA22080EB6
:101EA000E926000EEA22EFCF00F0DF50E96EEA6A81
:101EB000550EEA02F3CFEAFF030EE902F350EA26D9
:101EC000550EE902F3CFE9FFF450EA26000EE926A9
:101ED000030EEA22050EE926000EEA22EF50005C0E
:101EE0001AE3DF50E96EEA6A550EEA02F3CFEAFF21
:101EF000030EE902F350EA26550EE902F3CFE9FF9B
:101F0000F450EA26000EE926030EEA22080EE9261E
:101F1000000EEA22EF6ADF50E96EEA6A550EEA0225
:101F2000F3CFEAFF030EE902F350EA26550EE90269
:101F3000F3CFE9FFF450EA26000EE926030EEA2269
:101F40000A0EE926000EEA22EF6A9D90DF50E96E44
:101F5000EA6A550EEA02F3CFEAFF030EE902F350F4
:101F6000EA26550EE902F3CFE9FFF450EA26000E07
:101F7000E926030EEA22090EE926000EEA22010EE6
:101F8000EF6E9D80DF2A74EF0AF0050EE15C02E23D
:101F9000E16AE552E16EE552E7CFD9FF1200D9CFF1
:101FA000E6FFE1CFD9FF040EE12680908092809475
:101FB00080968098809A84908492020EDB6A010E4B
:101FC000F36E020EDBCFF4FFF350F45C01E3CAD0F2
:101FD000030EDB6A020EDB50E96EEA6A550EEA0276
:101FE000F3CFEAFF030EE902F350EA26550EE902A9
:101FF000F3CFE9FFF450EA26000EE926030EEA22A9
:10200000020EE926000EEA22EF50F36E030EDBCF3C
:10201000F4FFF350F45C01E3A2D0020EDB50E96E52
:10202000EA6A550EEA02F3CFEAFF030EE902F35023
:10203000EA26550EE902F3CFE9FFF450EA26000E36
:10204000E926030EEA220D0EE926000EEA22E9CF68
:1020500004F0EACF05F0020EDB50E96EEA6A550E95
:10206000EA02F3CFEAFF030EE902F350EA26550E27
:10207000E902F3CFE9FFF450EA26000EE926030E49
:10208000EA220C0EE926000EEA22EF50066E076ADD
:10209000180E0702F3CF07F006500726180E0602A7
:1020A000F3CF06F0F450072604500624026E0550C4
:1020B0000720036E0001C351280D0250F324006E67
:1020C0000350F420016E030EDB500F010024E96E73
:1020D000000E0120EA6EEFCFDFFF030EDBCFE6FF3D
:1020E000020EDB50E96EEA6A550EEA02F3CFEAFF10
:1020F000030EE902F350EA26550EE902F3CFE9FF99
:10210000F450EA26000EE926030EEA22EE52EF50C2
:10211000E552E724E76E010EE7CFDBFF400EF36EDA
:10212000010EDBCFF4FFF350F45C0AE3800E006E87
:10213000010EDBCFE7FF0050E726010EE7CFDBFF04
:10214000010EDB50816EDF1C836E84940A0EE66EF6
:10215000BFEC16F0E5528484030EDB2A3BD7020E57
:10216000DB2A2DD70001C351070A4EE0010A43E0E4
:10217000030A38E0010A2DE0070A22E0010A17E00D
:10218000030A0CE0010A01E048D08080809280942C
:1021900080968098809A849084923FD080908082AC
:1021A000809480968098809A8490849236D0809093
:1021B0008092808480968098809A849084922DD09A
:1021C00080908092809480868098809A8490849277
:1021D00024D080908092809480968088809A849089
:1021E00084921BD080908092809480968098808A80
:1021F0008490849212D0809080928094809680986F
:10220000809A8480849209D0809080928094809675
:102210008098809A8490848200D0C32BC351070891
:1022200001E383D0C36B020EDB6A010EF36E020E74
:10223000DBCFF4FFF350F45C01E377D0020EDB5008
:10224000E96EEA6A550EEA02F3CFEAFF030EE902ED
:10225000F350EA26550EE902F3CFE9FFF450EA26DF
:10226000000EE926030EEA22090EE926000EEA22F4
:10227000EF0458E1020EDB50E96EEA6A550EEA02FD
:10228000F3CFEAFF030EE902F350EA26550EE90206
:10229000F3CFE9FFF450EA26000EE926030EEA2206
:1022A0000C0EE926000EEA22EF5002E1010E01D0E9
:1022B000000EE66E020EDB50E96EEA6A550EEA0287
:1022C000F3CFEAFF030EE902F350EA26550EE902C6
:1022D000F3CFE9FFF450EA26000EE926030EEA22C6
:1022E0000C0EE926000EEA22E552E750EF6E020ED0
:1022F000DB50E96EEA6A550EEA02F3CFEAFF030EFD
:10230000E902F350EA26550EE902F3CFE9FFF45053
:10231000EA26000EE926030EEA22090EE926000E3F
:10232000EA22EF6A020EDB2A80D7040EE15C02E2A9
:10233000E16AE552E16EE552E7CFD9FF1200D9CF4D
:10234000E6FFE1CFD9FF400EF36EFE0EDBCFF4FFC8
:10235000F350F45C0AE3800E006EFE0EDBCFE7FF65
:102360000050E726FE0EE7CFDBFF8484FE0EDB5035
:10237000816EFD0EDB50836E8494640EE66EBFECBE
:0E23800016F0E5528484E552E7CFD9FF120033
:02238E0000004D
:1023900000000000000020202020000020005050FD
:1023A0005000000000005050F850F85050002078C5
:1023B000A07028F02000C0C810204098180060903D
:1023C000A040A8906800602040000000000010209D
:1023D00040404020100040201010102040000020FD
:1023E000A870A8200000002020F820200000000095
:1023F0000000301020000000007C00000000000001
:10240000000000606000000810204080000070881C
:1024100098A8C88870002060A0202020F80070884C
:1024200008102040F800F8102010088870001030C4
:102430005090F8101000F880F0080808F0003040C4
:1024400080F088887000F8081020404040007088B4
:102450008870888870007088887808106000006034
:1024600060006060000000606000602040000810B4
:102470002040201008000000F800F8000000402074
:10248000100810204000708808102000200070887C
:102490000868A8A87000205088F888888800F0880C
:1024A00088F08888F0007088808080887000E090D4
:1024B00088888890E000F88080F08080F800F880BC
:1024C00080F080808000708880B888887800888854
:1024D00088F888888800F82020202020F80038100C
:1024E0001010109060008890A0C0A090880080809C
:1024F00080808080F80088D8A8A88888880088888C
:10250000C8A8988888007088888888887000F088B3
:1025100088F08080800070888888A8906800F088A3
:1025200088F0A0908800788080700808F000F8207B
:10253000202020202000888888888888700088884B
:10254000888888502000888888A8A8A85000888893
:102550005020508888008888885020202000F80863
:1025600010204080F800704040404040700088508B
:10257000F820F8202000701010101010700020506B
:10258000880000000000000000000000F80040206B
:10259000100000000000000070087888780080803B
:1025A000B0C88888F000000070808088700008083B
:1025B00068988888780000007088F880700030483B
:1025C00040E04040400000788888780870008080B3
:1025D000B0C8888888002000602020207000080093
:1025E00008080848300040404850605048006020CB
:1025F0002020202070000000D0A8A88888000000BB
:10260000B0C8888888000000708888887000000042
:10261000F088F080800000006898780808000000CA
:10262000B0C880808000000070807008F0004040DA
:10263000E04040483000000088888898680000002A
:1026400088888850200000008888A8A850000000D2
:1026500088502050880000008888780870000000AA
:10266000F8102040F80010202040202010002020EA
:102670002020202020002010100810102000002012
:1026800010F810200000002040F8402000003048E2
:1026900048300000000030484830000000000818B2
:1026A0003878381808000404040404040400FFFF08
:1026B000FFFFFFFFFF00000404000404000000808F
:1026C0008000808000008080808080808000C0C08A
:1026D000C0C0C0C0C000E0E0E0E0E0E0E000F0F03A
:1026E000F0F0F0F0F000F8F8F8F8F8F8F800FCFC7A
:1026F000FCFCFCFCFC00FDFDFDFDFDFDFD00207073
:10270000F8707070700030488484844830008448C9
:102710003030304884000070487040400000003085
:102720004070106000000040404040780000000011
:102730008005C004E003F002F8010000080418035B
:0627400038027801F800E8
:0A274600DACFE4FFE2CFDAFFE9CFBB
:10275000E4FFEACFE4FFF6CFE4FFF7CFE4FFF5CFE5
:10276000E4FFF3CFE4FFF4CFE4FFFACFE4FF00EEA1
:102770000CF0020EE80403E3EECFE4FFFBD700EE1B
:1027800000F00C0EE80403E3EECFE4FFFBD7E652C3
:10279000F29494C0E6FF95C0E6FF30EC16F0E552E7
:1027A000E55200019651971107E005D097C0FAFF56
:1027B00000019651F96EFADF00019C2B000E9D235B
:1027C0009E239F23A02BA123A22BA323A42BA523CD
:1027D000E55200EE0BF00C0EE80403E3E5CFEDFF4D
:1027E000FBD700EE0DF0020EE80403E3E5CFEDFFAA
:1027F000FBD7E5CFFAFFE5CFF4FFE5CFF3FFE5CF59
:10280000F5FFE5CFF7FFE5CFF6FFE5CFEAFFE5CF30
:10281000E9FFE5CFDAFF1100DACFE4FFE2CFDAFF1C
:10282000E9CFE4FFEACFE4FFF6CFE4FFF7CFE4FF20
:10283000F5CFE4FFF3CFE4FFF4CFE4FFFACFE4FFFA
:1028400000EE0CF0020EE80403E3EECFE4FFFBD74A
:1028500000EE00F00C0EE80403E3EECFE4FFFBD73C
:10286000E6529E9098C0E6FF99C0E6FF14EC16F081
:10287000E552E55200019A519B1107E005D09BC03B
:10288000FAFF00019A51F96EFADFE55200EE0BF003
:102890000C0EE80403E3E5CFEDFFFBD700EE0DF0EF
:1028A000020EE80403E3E5CFEDFFFBD7E5CFFAFF27
:1028B000E5CFF4FFE5CFF3FFE5CFF5FFE5CFF7FF79
:1028C000E5CFF6FFE5CFEAFFE5CFE9FFE5CFDAFF99
:1028D0001100D9CFE6FFE1CFD9FF9F0EE66E4CEC99
:1028E00016F0E552FD0EDBCFE6FFFE0EDBCFE6FF76
:1028F00030EC16F0E552E552FD0EDBCF94F0FE0E03
:10290000DBCF95F0FB0EDBCF96F0FC0EDBCF97F024
:10291000E552E7CFD9FF1200D9CFE6FFE1CFD9FFCB
:10292000C50EE66EF3EC15F0E552FD0EDBCFE6FFCB
:10293000FE0EDBCFE6FF14EC16F0E552E5529F8069
:10294000FD0EDBCF98F0FE0EDBCF99F0FB0EDBCF58
:102950009AF0FC0EDBCF9BF0E552E7CFD9FF1200D7
:10296000D9CFE6FFE1CFD9FF3A0EE126020EDB6AAE
:10297000D950030FE96EDACFEAFFEE6AEE6AEE6A2B
:10298000EE6AEE6AD950080FE96EDACFEAFF410E1F
:10299000EE6E420EEE6E430EEE6E440EEE6E200EA6
:1029A000EE6EEE6AEE6AEE6AEE6AEE6AEE6AEE6A63
:1029B000EE6AEE6AEE6AEE6AEE6AEE6AEE6AEE6A57
:1029C000EE6AEE6AEE6AEE6AEE6AEE6AEE6AEE6A47
:1029D000EE6AEE6AEE6AEE6AEE6AEE6AEE6AEE6A37
:1029E000EE6AEE6AEE6AEE6AEE6AEE6AEE6AEE6A27
:1029F000EE6AEE6AEE6AEE6AEE6AEE6A68EC16F06D
:102A0000B2EC16F086EC00F084EC16F0000EE66EE8
:102A1000E66AEF0EE66ED80EE66E69EC14F0E5524B
:102A2000E552E552E5529E0EE66E1F0EE66EDF0E93
:102A3000E66EB10EE66E8CEC14F0E552E552E5520E
:102A4000E5520DEC00F0E66AB2EC08F0E552020E39
:102A5000DB6A280EF36E030EF3CFDBFFD950080FAD
:102A6000E66E000EDA20E66EE5EC15F0E552E55272
:102A7000060EF3CFDBFFD950080F006EDACF01F05E
:102A8000040E00C0DBFF050E01C0DBFF070EDB6A92
:102A9000D950020FE66E000EDA20E66EE66A5EECB2
:102AA00002F0E552E552E552F40E00019C5D010E84
:102AB0009D59000E9E59000E9F5907E3B5EC16F084
:102AC00000019C6B9D6B9E6B9F6B00010A0EA45DC9
:102AD000000EA55905E36DEC0AF00001A46BA56B8F
:102AE0000400E2D73A0EE15C02E2E16AE552E16EEF
:082AF000E552E7CFD9FF120007
:082AF800200EF66E000EF76ED1
:102B0000000EF86E00010900F550B66F0900F5508F
:102B1000B76F03E1B66701D03DD00900F550B16F42
:102B20000900F550B26F0900F550B36F09000900B4
:102B3000F550E96E0900F550EA6E09000900090038
:102B4000F550B46F0900F550B56F09000900F6CFD4
:102B5000B8F0F7CFB9F0F8CFBAF0B1C0F6FFB2C015
:102B6000F7FFB3C0F8FF0001B45302E1B55307E02B
:102B70000900F550EE6EB407F8E2B507F9D7B8C012
:102B8000F6FFB9C0F7FFBAC0F8FF0001B607000EA4
:062B9000B75BBFD7120085
:0A2B9600FE0EE3CFE9FFFF0EE3CFD0
:102BA000EAFFE9CFF3FFEACFF4FFFB0EE35003E1C6
:102BB000FC0EE35009E0FB0EE30602E2FC0EE30626
:102BC000FD0EE350EE6EF1D71200FE0EE3CFE9FFEB
:102BD000FF0EE3CFEAFFF36AF46AEE5203E0F34A32
:062BE000F42AFBD71200ED
:0A2BE600D9CFE6FFDACFE6FFE1CF1A
:102BF000D9FFE2CFDAFFFD0EDB507E0BCD6EFD0E6E
:102C0000DBAC02D0CD8E01D0CD9ECF6ACE6A9E9035
:102C1000DBAE02D09D8001D09D90CD80E552E5CF06
:082C2000DAFFE7CFD9FF120033
:082C2800D9CFE6FFDACFE6FF89
:102C3000E1CFD9FFE2CFDAFFE652E652FC0EDBCF5E
:102C4000DEFFDBCFDDFF010EDB50CF6EDF50CE6E3F
:102C5000E552E552E552E5CFDAFFE7CFD9FF1200A2
:102C6000D9CFE6FFDACFE6FFE1CFD9FFE2CFDAFF37
:102C7000E652E652FC0EDBCFDEFFDBCFDDFF010EBE
:102C8000DB50D76EDF50D66EE552E552E552E5CF08
:082C9000DAFFE7CFD9FF1200C3
:082C9800D9CFE6FFDACFE6FF19
:102CA000E1CFD9FFE2CFDAFFFD0EDB507F0BD56E0F
:102CB000D76AD66AF294FD0EDBAE02D0F28A01D05A
:102CC000F29AD58EE552E5CFDAFFE7CFD9FF1200B1
:102CD0000F0EC16EC26A949096948494949C948EC4
:102CE00096948484956A936A816A92908090929275
:102CF0008092929480949296809692988098929ADC
:082D0000809A96908490120065
:082D08001200D9CFE6FFE1CF74
:102D1000D9FF020EE126E15C02E2E16AE552E16ED2
:082D2000E552E7CFD9FF1200D4
:082D2800800EF36E00EE00F0D6
:102D30000F0E01D81200EA6002D0EE6AFCD7F35001
:082D4000E9601200EE6AFCD705
:082D48001EEE00F02EEE00F07B
:102D5000F86A0D9C7CEC15F003EC00F0B0EC14F07C
:042D6000FBD712008B
:0C2D64000001C26B12000001C20503E177
:0E2D7000C26B829003D0010EC26F82801200EF
:022D7E00FF0E46
:102D8000E350E84E1200000000D000D000D0E82E42
:042D9000FAD712005C
:0C2D940000000000000000000000000033
:062DA0000000000000002D
:0A2DA6003F065B4F666D7D077F6FEF
:012DB0000022
:012DB1000021
:0E2DB2004C494E4520000000000000000000CB
:062DC0000000000000000D
:012DC600000C
:020000040030CA
:0100010006F8
:010002001BE2
:0100030012EA
:010005008179
:010006008178
:010008000FE8
:01000900C036
:01000A000FE6
:01000B00E014
:01000C000FE4
:01000D0040B2
:00000001FF
